{
  "_format": "hh-sol-artifact-1",
  "contractName": "ChartClash",
  "sourceName": "contracts/ChartClash.sol",
  "abi": [
    {
      "inputs": [
        {
          "internalType": "address",
          "name": "_usdt",
          "type": "address"
        },
        {
          "internalType": "address",
          "name": "_oracle",
          "type": "address"
        }
      ],
      "stateMutability": "nonpayable",
      "type": "constructor"
    },
    {
      "inputs": [],
      "name": "EnforcedPause",
      "type": "error"
    },
    {
      "inputs": [],
      "name": "ExpectedPause",
      "type": "error"
    },
    {
      "inputs": [
        {
          "internalType": "address",
          "name": "owner",
          "type": "address"
        }
      ],
      "name": "OwnableInvalidOwner",
      "type": "error"
    },
    {
      "inputs": [
        {
          "internalType": "address",
          "name": "account",
          "type": "address"
        }
      ],
      "name": "OwnableUnauthorizedAccount",
      "type": "error"
    },
    {
      "inputs": [],
      "name": "ReentrancyGuardReentrantCall",
      "type": "error"
    },
    {
      "inputs": [
        {
          "internalType": "address",
          "name": "token",
          "type": "address"
        }
      ],
      "name": "SafeERC20FailedOperation",
      "type": "error"
    },
    {
      "anonymous": false,
      "inputs": [
        {
          "indexed": true,
          "internalType": "uint256",
          "name": "roundId",
          "type": "uint256"
        },
        {
          "indexed": true,
          "internalType": "address",
          "name": "user",
          "type": "address"
        },
        {
          "indexed": false,
          "internalType": "bool",
          "name": "isUp",
          "type": "bool"
        },
        {
          "indexed": false,
          "internalType": "uint256",
          "name": "amount",
          "type": "uint256"
        }
      ],
      "name": "BetPlaced",
      "type": "event"
    },
    {
      "anonymous": false,
      "inputs": [
        {
          "indexed": true,
          "internalType": "uint256",
          "name": "roundId",
          "type": "uint256"
        },
        {
          "indexed": true,
          "internalType": "address",
          "name": "user",
          "type": "address"
        },
        {
          "indexed": false,
          "internalType": "uint256",
          "name": "amount",
          "type": "uint256"
        }
      ],
      "name": "Claimed",
      "type": "event"
    },
    {
      "anonymous": false,
      "inputs": [
        {
          "indexed": true,
          "internalType": "address",
          "name": "user",
          "type": "address"
        },
        {
          "indexed": false,
          "internalType": "uint256",
          "name": "amount",
          "type": "uint256"
        }
      ],
      "name": "Deposited",
      "type": "event"
    },
    {
      "anonymous": false,
      "inputs": [
        {
          "indexed": true,
          "internalType": "address",
          "name": "newOracle",
          "type": "address"
        }
      ],
      "name": "OracleUpdated",
      "type": "event"
    },
    {
      "anonymous": false,
      "inputs": [
        {
          "indexed": true,
          "internalType": "address",
          "name": "previousOwner",
          "type": "address"
        },
        {
          "indexed": true,
          "internalType": "address",
          "name": "newOwner",
          "type": "address"
        }
      ],
      "name": "OwnershipTransferred",
      "type": "event"
    },
    {
      "anonymous": false,
      "inputs": [
        {
          "indexed": false,
          "internalType": "address",
          "name": "account",
          "type": "address"
        }
      ],
      "name": "Paused",
      "type": "event"
    },
    {
      "anonymous": false,
      "inputs": [
        {
          "indexed": true,
          "internalType": "uint256",
          "name": "roundId",
          "type": "uint256"
        }
      ],
      "name": "RoundCancelled",
      "type": "event"
    },
    {
      "anonymous": false,
      "inputs": [
        {
          "indexed": true,
          "internalType": "uint256",
          "name": "roundId",
          "type": "uint256"
        },
        {
          "indexed": false,
          "internalType": "string",
          "name": "asset",
          "type": "string"
        },
        {
          "indexed": false,
          "internalType": "string",
          "name": "timeframe",
          "type": "string"
        },
        {
          "indexed": false,
          "internalType": "uint256",
          "name": "closeTime",
          "type": "uint256"
        }
      ],
      "name": "RoundCreated",
      "type": "event"
    },
    {
      "anonymous": false,
      "inputs": [
        {
          "indexed": true,
          "internalType": "uint256",
          "name": "roundId",
          "type": "uint256"
        },
        {
          "indexed": false,
          "internalType": "uint256",
          "name": "closePrice",
          "type": "uint256"
        },
        {
          "indexed": false,
          "internalType": "bool",
          "name": "upWon",
          "type": "bool"
        }
      ],
      "name": "RoundSettled",
      "type": "event"
    },
    {
      "anonymous": false,
      "inputs": [
        {
          "indexed": false,
          "internalType": "address",
          "name": "account",
          "type": "address"
        }
      ],
      "name": "Unpaused",
      "type": "event"
    },
    {
      "anonymous": false,
      "inputs": [
        {
          "indexed": true,
          "internalType": "address",
          "name": "user",
          "type": "address"
        },
        {
          "indexed": false,
          "internalType": "uint256",
          "name": "amount",
          "type": "uint256"
        },
        {
          "indexed": false,
          "internalType": "uint256",
          "name": "fee",
          "type": "uint256"
        }
      ],
      "name": "Withdrawn",
      "type": "event"
    },
    {
      "inputs": [],
      "name": "FEE_DENOM",
      "outputs": [
        {
          "internalType": "uint256",
          "name": "",
          "type": "uint256"
        }
      ],
      "stateMutability": "view",
      "type": "function"
    },
    {
      "inputs": [],
      "name": "HOUSE_FEE_BPS",
      "outputs": [
        {
          "internalType": "uint256",
          "name": "",
          "type": "uint256"
        }
      ],
      "stateMutability": "view",
      "type": "function"
    },
    {
      "inputs": [
        {
          "internalType": "address",
          "name": "",
          "type": "address"
        }
      ],
      "name": "balances",
      "outputs": [
        {
          "internalType": "uint256",
          "name": "",
          "type": "uint256"
        }
      ],
      "stateMutability": "view",
      "type": "function"
    },
    {
      "inputs": [
        {
          "internalType": "uint256",
          "name": "",
          "type": "uint256"
        },
        {
          "internalType": "address",
          "name": "",
          "type": "address"
        }
      ],
      "name": "bets",
      "outputs": [
        {
          "internalType": "uint256",
          "name": "amount",
          "type": "uint256"
        },
        {
          "internalType": "bool",
          "name": "isUp",
          "type": "bool"
        },
        {
          "internalType": "bool",
          "name": "claimed",
          "type": "bool"
        }
      ],
      "stateMutability": "view",
      "type": "function"
    },
    {
      "inputs": [
        {
          "internalType": "uint256",
          "name": "roundId",
          "type": "uint256"
        }
      ],
      "name": "claimRefund",
      "outputs": [],
      "stateMutability": "nonpayable",
      "type": "function"
    },
    {
      "inputs": [
        {
          "internalType": "uint256",
          "name": "roundId",
          "type": "uint256"
        }
      ],
      "name": "claimWinnings",
      "outputs": [],
      "stateMutability": "nonpayable",
      "type": "function"
    },
    {
      "inputs": [
        {
          "internalType": "uint256",
          "name": "amount",
          "type": "uint256"
        }
      ],
      "name": "collectFees",
      "outputs": [],
      "stateMutability": "nonpayable",
      "type": "function"
    },
    {
      "inputs": [
        {
          "internalType": "string",
          "name": "asset",
          "type": "string"
        },
        {
          "internalType": "string",
          "name": "timeframe",
          "type": "string"
        },
        {
          "internalType": "uint256",
          "name": "openPrice",
          "type": "uint256"
        },
        {
          "internalType": "uint256",
          "name": "closeTime",
          "type": "uint256"
        }
      ],
      "name": "createRound",
      "outputs": [
        {
          "internalType": "uint256",
          "name": "roundId",
          "type": "uint256"
        }
      ],
      "stateMutability": "nonpayable",
      "type": "function"
    },
    {
      "inputs": [
        {
          "internalType": "uint256",
          "name": "amount",
          "type": "uint256"
        }
      ],
      "name": "deposit",
      "outputs": [],
      "stateMutability": "nonpayable",
      "type": "function"
    },
    {
      "inputs": [
        {
          "internalType": "address[]",
          "name": "users",
          "type": "address[]"
        }
      ],
      "name": "emergencyWithdrawFor",
      "outputs": [],
      "stateMutability": "nonpayable",
      "type": "function"
    },
    {
      "inputs": [
        {
          "internalType": "address",
          "name": "user",
          "type": "address"
        }
      ],
      "name": "getBalance",
      "outputs": [
        {
          "internalType": "uint256",
          "name": "",
          "type": "uint256"
        }
      ],
      "stateMutability": "view",
      "type": "function"
    },
    {
      "inputs": [
        {
          "internalType": "uint256",
          "name": "roundId",
          "type": "uint256"
        },
        {
          "internalType": "address",
          "name": "user",
          "type": "address"
        }
      ],
      "name": "getBet",
      "outputs": [
        {
          "components": [
            {
              "internalType": "uint256",
              "name": "amount",
              "type": "uint256"
            },
            {
              "internalType": "bool",
              "name": "isUp",
              "type": "bool"
            },
            {
              "internalType": "bool",
              "name": "claimed",
              "type": "bool"
            }
          ],
          "internalType": "struct ChartClash.Bet",
          "name": "",
          "type": "tuple"
        }
      ],
      "stateMutability": "view",
      "type": "function"
    },
    {
      "inputs": [
        {
          "internalType": "uint256",
          "name": "roundId",
          "type": "uint256"
        }
      ],
      "name": "getRound",
      "outputs": [
        {
          "components": [
            {
              "internalType": "string",
              "name": "asset",
              "type": "string"
            },
            {
              "internalType": "string",
              "name": "timeframe",
              "type": "string"
            },
            {
              "internalType": "uint256",
              "name": "openPrice",
              "type": "uint256"
            },
            {
              "internalType": "uint256",
              "name": "closeTime",
              "type": "uint256"
            },
            {
              "internalType": "uint256",
              "name": "upPool",
              "type": "uint256"
            },
            {
              "internalType": "uint256",
              "name": "downPool",
              "type": "uint256"
            },
            {
              "internalType": "uint256",
              "name": "closePrice",
              "type": "uint256"
            },
            {
              "internalType": "bool",
              "name": "settled",
              "type": "bool"
            },
            {
              "internalType": "bool",
              "name": "cancelled",
              "type": "bool"
            }
          ],
          "internalType": "struct ChartClash.Round",
          "name": "",
          "type": "tuple"
        }
      ],
      "stateMutability": "view",
      "type": "function"
    },
    {
      "inputs": [],
      "name": "nextRoundId",
      "outputs": [
        {
          "internalType": "uint256",
          "name": "",
          "type": "uint256"
        }
      ],
      "stateMutability": "view",
      "type": "function"
    },
    {
      "inputs": [],
      "name": "oracle",
      "outputs": [
        {
          "internalType": "address",
          "name": "",
          "type": "address"
        }
      ],
      "stateMutability": "view",
      "type": "function"
    },
    {
      "inputs": [],
      "name": "owner",
      "outputs": [
        {
          "internalType": "address",
          "name": "",
          "type": "address"
        }
      ],
      "stateMutability": "view",
      "type": "function"
    },
    {
      "inputs": [],
      "name": "pause",
      "outputs": [],
      "stateMutability": "nonpayable",
      "type": "function"
    },
    {
      "inputs": [],
      "name": "paused",
      "outputs": [
        {
          "internalType": "bool",
          "name": "",
          "type": "bool"
        }
      ],
      "stateMutability": "view",
      "type": "function"
    },
    {
      "inputs": [
        {
          "internalType": "uint256",
          "name": "roundId",
          "type": "uint256"
        },
        {
          "internalType": "bool",
          "name": "isUp",
          "type": "bool"
        },
        {
          "internalType": "uint256",
          "name": "amount",
          "type": "uint256"
        }
      ],
      "name": "placeBet",
      "outputs": [],
      "stateMutability": "nonpayable",
      "type": "function"
    },
    {
      "inputs": [
        {
          "internalType": "uint256",
          "name": "roundId",
          "type": "uint256"
        },
        {
          "internalType": "bool",
          "name": "isUp",
          "type": "bool"
        },
        {
          "internalType": "uint256",
          "name": "betAmount",
          "type": "uint256"
        }
      ],
      "name": "previewPayout",
      "outputs": [
        {
          "internalType": "uint256",
          "name": "estimatedPayout",
          "type": "uint256"
        }
      ],
      "stateMutability": "view",
      "type": "function"
    },
    {
      "inputs": [],
      "name": "renounceOwnership",
      "outputs": [],
      "stateMutability": "nonpayable",
      "type": "function"
    },
    {
      "inputs": [
        {
          "internalType": "uint256",
          "name": "",
          "type": "uint256"
        }
      ],
      "name": "rounds",
      "outputs": [
        {
          "internalType": "string",
          "name": "asset",
          "type": "string"
        },
        {
          "internalType": "string",
          "name": "timeframe",
          "type": "string"
        },
        {
          "internalType": "uint256",
          "name": "openPrice",
          "type": "uint256"
        },
        {
          "internalType": "uint256",
          "name": "closeTime",
          "type": "uint256"
        },
        {
          "internalType": "uint256",
          "name": "upPool",
          "type": "uint256"
        },
        {
          "internalType": "uint256",
          "name": "downPool",
          "type": "uint256"
        },
        {
          "internalType": "uint256",
          "name": "closePrice",
          "type": "uint256"
        },
        {
          "internalType": "bool",
          "name": "settled",
          "type": "bool"
        },
        {
          "internalType": "bool",
          "name": "cancelled",
          "type": "bool"
        }
      ],
      "stateMutability": "view",
      "type": "function"
    },
    {
      "inputs": [
        {
          "internalType": "address",
          "name": "_oracle",
          "type": "address"
        }
      ],
      "name": "setOracle",
      "outputs": [],
      "stateMutability": "nonpayable",
      "type": "function"
    },
    {
      "inputs": [
        {
          "internalType": "uint256",
          "name": "_bps",
          "type": "uint256"
        }
      ],
      "name": "setWithdrawFee",
      "outputs": [],
      "stateMutability": "nonpayable",
      "type": "function"
    },
    {
      "inputs": [
        {
          "internalType": "uint256",
          "name": "roundId",
          "type": "uint256"
        },
        {
          "internalType": "uint256",
          "name": "closePrice",
          "type": "uint256"
        }
      ],
      "name": "settleRound",
      "outputs": [],
      "stateMutability": "nonpayable",
      "type": "function"
    },
    {
      "inputs": [
        {
          "internalType": "address",
          "name": "newOwner",
          "type": "address"
        }
      ],
      "name": "transferOwnership",
      "outputs": [],
      "stateMutability": "nonpayable",
      "type": "function"
    },
    {
      "inputs": [],
      "name": "unpause",
      "outputs": [],
      "stateMutability": "nonpayable",
      "type": "function"
    },
    {
      "inputs": [],
      "name": "usdt",
      "outputs": [
        {
          "internalType": "contract IERC20",
          "name": "",
          "type": "address"
        }
      ],
      "stateMutability": "view",
      "type": "function"
    },
    {
      "inputs": [
        {
          "internalType": "uint256",
          "name": "amount",
          "type": "uint256"
        }
      ],
      "name": "withdraw",
      "outputs": [],
      "stateMutability": "nonpayable",
      "type": "function"
    },
    {
      "inputs": [],
      "name": "withdrawFeeBps",
      "outputs": [
        {
          "internalType": "uint256",
          "name": "",
          "type": "uint256"
        }
      ],
      "stateMutability": "view",
      "type": "function"
    }
  ],
  "bytecode": "0x60a0604052606460025560016006553480156200001b57600080fd5b50604051620024ee380380620024ee8339810160408190526200003e91620001e5565b60017f9b779b17422d0df92223018b32b4d1fa46e071723d6817e2486d003becc55f005533806200008a57604051631e4fbdf760e01b8152600060048201526024015b60405180910390fd5b62000095816200016f565b506001600160a01b038216620000ee5760405162461bcd60e51b815260206004820152601460248201527f496e76616c696420555344542061646472657373000000000000000000000000604482015260640162000081565b6001600160a01b038116620001465760405162461bcd60e51b815260206004820152601660248201527f496e76616c6964206f7261636c65206164647265737300000000000000000000604482015260640162000081565b6001600160a01b03918216608052600180546001600160a01b031916919092161790556200021d565b600080546001600160a01b03838116610100818102610100600160a81b0319851617855560405193049190911692909183917f8be0079c531659141344cd1fd0a4f28419497f9722a3daafe3b4186f6b6457e091a35050565b80516001600160a01b0381168114620001e057600080fd5b919050565b60008060408385031215620001f957600080fd5b6200020483620001c8565b91506200021460208401620001c8565b90509250929050565b6080516122a06200024e60003960008181610248015281816108b401528181610c2a015261160501526122a06000f3fe608060405234801561001057600080fd5b50600436106101da5760003560e01c80637aca2b5911610104578063b17acdcd116100a2578063e48262f211610071578063e48262f214610420578063f2fde38b14610433578063f644b3bb14610446578063f8b2cb4f146104a157600080fd5b8063b17acdcd146103ae578063b6ac642a146103c1578063b6b55f25146103d4578063e0950ddf146103e757600080fd5b80638456cb59116100de5780638456cb59146103485780638c65c81f146103505780638da5cb5b146103785780638f1327c01461038e57600080fd5b80637aca2b59146103195780637adbf973146103225780637dc0d1d01461033557600080fd5b80633f4ba83a1161017c5780635c6f16e21161014b5780635c6f16e2146102d55780635c975abb146102e8578063677bd9ff146102fe578063715018a61461031157600080fd5b80633f4ba83a146102a85780634002eda6146102b05780634886c675146102b95780635b7baf64146102c257600080fd5b80632e1a7d4d116101b85780632e1a7d4d146102305780632f48ab7d146102435780633323dc17146102825780633d9185761461029557600080fd5b80631594b256146101df5780631a38cac6146101fb57806327e235e314610210575b600080fd5b6101e861012c81565b6040519081526020015b60405180910390f35b61020e610209366004611c66565b6104ca565b005b6101e861021e366004611cbf565b60036020526000908152604090205481565b61020e61023e366004611cda565b6107cc565b61026a7f000000000000000000000000000000000000000000000000000000000000000081565b6040516001600160a01b0390911681526020016101f2565b61020e610290366004611cf3565b610932565b61020e6102a3366004611d15565b610b45565b61020e610c64565b6101e860065481565b6101e861271081565b61020e6102d0366004611cda565b610c76565b6101e86102e3366004611c66565b610e00565b60005460ff1660405190151581526020016101f2565b61020e61030c366004611cda565b610ec8565b61020e611137565b6101e860025481565b61020e610330366004611cbf565b611149565b60015461026a906001600160a01b031681565b61020e6111e2565b61036361035e366004611cda565b6111f2565b6040516101f299989796959493929190611dd0565b60005461010090046001600160a01b031661026a565b6103a161039c366004611cda565b611351565b6040516101f29190611e35565b61020e6103bc366004611cda565b611539565b61020e6103cf366004611cda565b61155b565b61020e6103e2366004611cda565b6115a3565b6103fa6103f5366004611ecd565b611679565b6040805182518152602080840151151590820152918101511515908201526060016101f2565b6101e861042e366004611f42565b6116e7565b61020e610441366004611cbf565b611934565b610484610454366004611ecd565b60056020908152600092835260408084209091529082529020805460019091015460ff8082169161010090041683565b6040805193845291151560208401521515908201526060016101f2565b6101e86104af366004611cbf565b6001600160a01b031660009081526003602052604090205490565b6104d261196f565b6104da61198b565b600083815260046020526040902060038101546105355760405162461bcd60e51b8152602060048201526014602482015273149bdd5b9908191bd95cc81b9bdd08195e1a5cdd60621b60448201526064015b60405180910390fd5b8060030154421061057a5760405162461bcd60e51b815260206004820152600f60248201526e149bdd5b99081a5cc818db1bdcd959608a1b604482015260640161052c565b600781015460ff1615801561059957506007810154610100900460ff16155b6105d35760405162461bcd60e51b815260206004820152600b60248201526a149bdd5b9908195b99195960aa1b604482015260640161052c565b6000848152600560209081526040808320338452909152902054156106335760405162461bcd60e51b8152602060048201526016602482015275105b1c9958591e4818995d081d1a1a5cc81c9bdd5b9960521b604482015260640161052c565b600082116106535760405162461bcd60e51b815260040161052c90611fc0565b336000908152600360205260409020548211156106a95760405162461bcd60e51b8152602060048201526014602482015273496e73756666696369656e742062616c616e636560601b604482015260640161052c565b33600090815260036020526040812080548492906106c8908490611ffb565b90915550506040805160608101825283815284158015602080840191825260008486018181528a82526005835286822033835290925294909420925183555160019092018054935161ffff1990941692151561ff0019169290921761010093151593909302929092179055610756578181600401600082825461074b919061200e565b909155506107709050565b8181600501600082825461076a919061200e565b90915550505b60408051841515815260208101849052339186917f4af71b021e799c62c158bd54636ca8da2fa26115a21a2dc6efe486ec104fd15f910160405180910390a3506107c7600160008051602061224b83398151915255565b505050565b6107d461196f565b6107dc61198b565b600081116107fc5760405162461bcd60e51b815260040161052c90611fc0565b336000908152600360205260409020548111156108525760405162461bcd60e51b8152602060048201526014602482015273496e73756666696369656e742062616c616e636560601b604482015260640161052c565b6000612710600254836108659190612021565b61086f9190612038565b9050600061087d8284611ffb565b336000908152600360205260408120805492935085929091906108a1908490611ffb565b909155506108db90506001600160a01b037f00000000000000000000000000000000000000000000000000000000000000001633836119af565b604080518281526020810184905233917f92ccf450a286a957af52509bc1c9939d1a6a481783e142e41e2499f0bb66ebc6910160405180910390a2505061092f600160008051602061224b83398151915255565b50565b6001546001600160a01b0316331461098c5760405162461bcd60e51b815260206004820181905260248201527f4368617274436c6173683a2063616c6c6572206973206e6f74206f7261636c65604482015260640161052c565b600082815260046020526040902060038101546109e25760405162461bcd60e51b8152602060048201526014602482015273149bdd5b9908191bd95cc81b9bdd08195e1a5cdd60621b604482015260640161052c565b8060030154421015610a2d5760405162461bcd60e51b8152602060048201526014602482015273149bdd5b99081b9bdd0818db1bdcd959081e595d60621b604482015260640161052c565b600781015460ff16158015610a4c57506007810154610100900460ff16155b610a8c5760405162461bcd60e51b8152602060048201526011602482015270105b1c9958591e48199a5b985b1a5e9959607a1b604482015260640161052c565b6006810182905560048101541580610aa657506005810154155b15610aec5760078101805461ff00191661010017905560405183907fbf7aeff89cf7a4c3d0145879e39aa6a19e8e64ed585090ef86bf31f4d2ae57bf90600090a2505050565b60078101805460ff19166001179055600281015460408051848152918411602083018190529185917fe7febaff6b3a6421d546f752cce8859a16914b6aa5f750527ad0229d89bfd4cf910160405180910390a250505050565b610b4d6119e4565b610b55611a17565b60005b818110156107c757600060036000858585818110610b7857610b7861205a565b9050602002016020810190610b8d9190611cbf565b6001600160a01b0316815260208101919091526040016000205490508015610c5157600060036000868686818110610bc757610bc761205a565b9050602002016020810190610bdc9190611cbf565b6001600160a01b03168152602081019190915260400160002055610c51848484818110610c0b57610c0b61205a565b9050602002016020810190610c209190611cbf565b6001600160a01b037f00000000000000000000000000000000000000000000000000000000000000001690836119af565b5080610c5c81612070565b915050610b58565b610c6c6119e4565b610c74611a3a565b565b610c7e61196f565b60008181526004602052604090206007810154610100900460ff16610cdb5760405162461bcd60e51b8152602060048201526013602482015272149bdd5b99081b9bdd0818d85b98d95b1b1959606a1b604482015260640161052c565b600082815260056020908152604080832033845290915290208054610d2b5760405162461bcd60e51b8152602060048201526006602482015265139bc818995d60d21b604482015260640161052c565b6001810154610100900460ff1615610d775760405162461bcd60e51b815260206004820152600f60248201526e105b1c9958591e4818db185a5b5959608a1b604482015260640161052c565b60018101805461ff00191661010017905580543360009081526003602052604081208054909190610da990849061200e565b90915550508054604051908152339084907f4ec90e965519d92681267467f775ada5bd214aa92c0dc93d90a5e880ce9ed0269060200160405180910390a3505061092f600160008051602061224b83398151915255565b60008381526004602052604081208184610e2957838260050154610e24919061200e565b610e39565b838260040154610e39919061200e565b9050600085610e4c578260040154610e52565b82600501545b9050811580610e5f575080155b15610e6f57849350505050610ec1565b6000612710610e8061012c82611ffb565b610e8a9084612021565b610e949190612038565b9050600083610ea38389612021565b610ead9190612038565b9050610eb9818861200e565b955050505050505b9392505050565b610ed061196f565b6000818152600460205260409020600781015460ff16610f265760405162461bcd60e51b8152602060048201526011602482015270149bdd5b99081b9bdd081cd95d1d1b1959607a1b604482015260640161052c565b600082815260056020908152604080832033845290915290208054610f765760405162461bcd60e51b8152602060048201526006602482015265139bc818995d60d21b604482015260640161052c565b6001810154610100900460ff1615610fc25760405162461bcd60e51b815260206004820152600f60248201526e105b1c9958591e4818db185a5b5959608a1b604482015260640161052c565b60028201546006830154600183015491109060ff161515811461101d5760405162461bcd60e51b8152602060048201526013602482015272165bdd481b1bdcdd081d1a1a5cc81c9bdd5b99606a1b604482015260640161052c565b60018201805461ff00191661010017905560008161103f578360050154611045565b83600401545b905060008261105857846004015461105e565b84600501545b9050600061271061107161012c82611ffb565b61107b9084612021565b6110859190612038565b905060008382876000015461109a9190612021565b6110a49190612038565b905060008187600001546110b8919061200e565b336000908152600360205260408120805492935083929091906110dc90849061200e565b909155505060405181815233908a907f4ec90e965519d92681267467f775ada5bd214aa92c0dc93d90a5e880ce9ed0269060200160405180910390a3505050505050505061092f600160008051602061224b83398151915255565b61113f6119e4565b610c746000611a8c565b6111516119e4565b6001600160a01b0381166111985760405162461bcd60e51b815260206004820152600e60248201526d496e76616c6964206f7261636c6560901b604482015260640161052c565b600180546001600160a01b0319166001600160a01b0383169081179091556040517f3df77beb5db05fcdd70a30fc8adf3f83f9501b68579455adbd100b818094039490600090a250565b6111ea6119e4565b610c74611ae5565b60046020526000908152604090208054819061120d90612089565b80601f016020809104026020016040519081016040528092919081815260200182805461123990612089565b80156112865780601f1061125b57610100808354040283529160200191611286565b820191906000526020600020905b81548152906001019060200180831161126957829003601f168201915b50505050509080600101805461129b90612089565b80601f01602080910402602001604051908101604052809291908181526020018280546112c790612089565b80156113145780601f106112e957610100808354040283529160200191611314565b820191906000526020600020905b8154815290600101906020018083116112f757829003601f168201915b5050506002840154600385015460048601546005870154600688015460079098015496979396929550909350919060ff8082169161010090041689565b6113a4604051806101200160405280606081526020016060815260200160008152602001600081526020016000815260200160008152602001600081526020016000151581526020016000151581525090565b60008281526004602052604090819020815161012081019092528054829082906113cd90612089565b80601f01602080910402602001604051908101604052809291908181526020018280546113f990612089565b80156114465780601f1061141b57610100808354040283529160200191611446565b820191906000526020600020905b81548152906001019060200180831161142957829003601f168201915b5050505050815260200160018201805461145f90612089565b80601f016020809104026020016040519081016040528092919081815260200182805461148b90612089565b80156114d85780601f106114ad576101008083540402835291602001916114d8565b820191906000526020600020905b8154815290600101906020018083116114bb57829003601f168201915b505050918352505060028201546020820152600382015460408201526004820154606082015260058201546080820152600682015460a082015260079091015460ff808216151560c084015261010090910416151560e09091015292915050565b6115416119e4565b60005461092f9061010090046001600160a01b0316610c20565b6115636119e4565b6101f481111561159e5760405162461bcd60e51b81526020600482015260066024820152654d617820352560d01b604482015260640161052c565b600255565b6115ab61196f565b6115b361198b565b600081116115d35760405162461bcd60e51b815260040161052c90611fc0565b33600090815260036020526040812080548392906115f290849061200e565b9091555061162d90506001600160a01b037f000000000000000000000000000000000000000000000000000000000000000016333084611b22565b60405181815233907f2da466a7b24304f47e87fa2e1e5a81b9831ce54fec19055ce277ca2f39ba42c49060200160405180910390a261092f600160008051602061224b83398151915255565b604080516060808201835260008083526020808401829052928401819052858152600583528381206001600160a01b0386168252835283902083519182018452805482526001015460ff80821615159383019390935261010090049091161515918101919091525b92915050565b6001546000906001600160a01b031633146117445760405162461bcd60e51b815260206004820181905260248201527f4368617274436c6173683a2063616c6c6572206973206e6f74206f7261636c65604482015260640161052c565b4282116117935760405162461bcd60e51b815260206004820152601c60248201527f436c6f73652074696d65206d75737420626520696e2066757475726500000000604482015260640161052c565b600680549060006117a383612070565b90915550604080516101406020601f8b01819004028201810190925261012081018981529293509182918a908a9081908501838280828437600092019190915250505090825250604080516020601f890181900481028201810190925287815291810191908890889081908401838280828437600092018290525093855250505060208083018790526040808401879052606084018390526080840183905260a0840183905260c0840183905260e090930182905284825260049052208151819061186e9082612127565b50602082015160018201906118839082612127565b506040828101516002830155606083015160038301556080830151600483015560a0830151600583015560c0830151600683015560e0830151600790920180546101009485015161ffff1990911693151561ff00191693909317921515909302919091179091555181907fca4e7b7f1ced7b96471eb33c82c804eaa9a2c15ae22d72963f27cad2d3bcb4ad90611922908a908a908a908a908990612210565b60405180910390a29695505050505050565b61193c6119e4565b6001600160a01b03811661196657604051631e4fbdf760e01b81526000600482015260240161052c565b61092f81611a8c565b611977611b5e565b600260008051602061224b83398151915255565b60005460ff1615610c745760405163d93c066560e01b815260040160405180910390fd5b6119bc8383836001611b8e565b6107c757604051635274afe760e01b81526001600160a01b038416600482015260240161052c565b6000546001600160a01b03610100909104163314610c745760405163118cdaa760e01b815233600482015260240161052c565b60005460ff16610c7457604051638dfc202b60e01b815260040160405180910390fd5b611a42611a17565b6000805460ff191690557f5db9ee0a495bf2e6ff9c91a7834c1ba4fdd244a5e8aa4e537bd38aeae4b073aa335b6040516001600160a01b03909116815260200160405180910390a1565b600080546001600160a01b03838116610100818102610100600160a81b0319851617855560405193049190911692909183917f8be0079c531659141344cd1fd0a4f28419497f9722a3daafe3b4186f6b6457e091a35050565b611aed61198b565b6000805460ff191660011790557f62e78cea01bee320cd4e420270b5ea74000d11b0c9f74754ebdbfc544b05a258611a6f3390565b611b30848484846001611bf4565b611b5857604051635274afe760e01b81526001600160a01b038516600482015260240161052c565b50505050565b60008051602061224b83398151915254600203610c7457604051633ee5aeb560e01b815260040160405180910390fd5b60405163a9059cbb60e01b60008181526001600160a01b038616600452602485905291602083604481808b5af192506001600051148316611be8578383151615611bdb573d6000823e3d81fd5b6000873b113d1516831692505b60405250949350505050565b6040516323b872dd60e01b60008181526001600160a01b038781166004528616602452604485905291602083606481808c5af192506001600051148316611c54578383151615611c47573d6000823e3d81fd5b6000883b113d1516831692505b60405250600060605295945050505050565b600080600060608486031215611c7b57600080fd5b8335925060208401358015158114611c9257600080fd5b929592945050506040919091013590565b80356001600160a01b0381168114611cba57600080fd5b919050565b600060208284031215611cd157600080fd5b610ec182611ca3565b600060208284031215611cec57600080fd5b5035919050565b60008060408385031215611d0657600080fd5b50508035926020909101359150565b60008060208385031215611d2857600080fd5b823567ffffffffffffffff80821115611d4057600080fd5b818501915085601f830112611d5457600080fd5b813581811115611d6357600080fd5b8660208260051b8501011115611d7857600080fd5b60209290920196919550909350505050565b6000815180845260005b81811015611db057602081850181015186830182015201611d94565b506000602082860101526020601f19601f83011685010191505092915050565b6000610120808352611de48184018d611d8a565b90508281036020840152611df8818c611d8a565b604084019a909a5250506060810196909652608086019490945260a085019290925260c0840152151560e083015215156101009091015292915050565b6020815260008251610120806020850152611e54610140850183611d8a565b91506020850151601f19858403016040860152611e718382611d8a565b9250506040850151606085015260608501516080850152608085015160a085015260a085015160c085015260c085015160e085015260e0850151610100611ebb8187018315159052565b90950151151593019290925250919050565b60008060408385031215611ee057600080fd5b82359150611ef060208401611ca3565b90509250929050565b60008083601f840112611f0b57600080fd5b50813567ffffffffffffffff811115611f2357600080fd5b602083019150836020828501011115611f3b57600080fd5b9250929050565b60008060008060008060808789031215611f5b57600080fd5b863567ffffffffffffffff80821115611f7357600080fd5b611f7f8a838b01611ef9565b90985096506020890135915080821115611f9857600080fd5b50611fa589828a01611ef9565b979a9699509760408101359660609091013595509350505050565b6020808252600b908201526a16995c9bc8185b5bdd5b9d60aa1b604082015260600190565b634e487b7160e01b600052601160045260246000fd5b818103818111156116e1576116e1611fe5565b808201808211156116e1576116e1611fe5565b80820281158282048414176116e1576116e1611fe5565b60008261205557634e487b7160e01b600052601260045260246000fd5b500490565b634e487b7160e01b600052603260045260246000fd5b60006001820161208257612082611fe5565b5060010190565b600181811c9082168061209d57607f821691505b6020821081036120bd57634e487b7160e01b600052602260045260246000fd5b50919050565b634e487b7160e01b600052604160045260246000fd5b601f8211156107c757600081815260208120601f850160051c810160208610156121005750805b601f850160051c820191505b8181101561211f5782815560010161210c565b505050505050565b815167ffffffffffffffff811115612141576121416120c3565b6121558161214f8454612089565b846120d9565b602080601f83116001811461218a57600084156121725750858301515b600019600386901b1c1916600185901b17855561211f565b600085815260208120601f198616915b828110156121b95788860151825594840194600190910190840161219a565b50858210156121d75787850151600019600388901b60f8161c191681555b5050505050600190811b01905550565b81835281816020850137506000828201602090810191909152601f909101601f19169091010190565b6060815260006122246060830187896121e7565b82810360208401526122378186886121e7565b915050826040830152969550505050505056fe9b779b17422d0df92223018b32b4d1fa46e071723d6817e2486d003becc55f00a2646970667358221220a7e37a7f01074f6e8a6d4dfee50b2bd23b0db0d797d2c851eb2321534f79a1ab64736f6c63430008140033",
  "linkReferences": {},
  "deployedLinkReferences": {}
}