{"contracts/ChartClash.sol":{"ChartClash":{"abi":[{"inputs":[{"internalType":"address","name":"_usdt","type":"address"},{"internalType":"address","name":"_oracle","type":"address"}],"stateMutability":"nonpayable","type":"constructor"},{"inputs":[],"name":"EnforcedPause","type":"error"},{"inputs":[],"name":"ExpectedPause","type":"error"},{"inputs":[{"internalType":"address","name":"owner","type":"address"}],"name":"OwnableInvalidOwner","type":"error"},{"inputs":[{"internalType":"address","name":"account","type":"address"}],"name":"OwnableUnauthorizedAccount","type":"error"},{"inputs":[],"name":"ReentrancyGuardReentrantCall","type":"error"},{"inputs":[{"internalType":"address","name":"token","type":"address"}],"name":"SafeERC20FailedOperation","type":"error"},{"anonymous":false,"inputs":[{"indexed":true,"internalType":"uint256","name":"roundId","type":"uint256"},{"indexed":true,"internalType":"address","name":"user","type":"address"},{"indexed":false,"internalType":"bool","name":"isUp","type":"bool"},{"indexed":false,"internalType":"uint256","name":"amount","type":"uint256"}],"name":"BetPlaced","type":"event"},{"anonymous":false,"inputs":[{"indexed":true,"internalType":"uint256","name":"roundId","type":"uint256"},{"indexed":true,"internalType":"address","name":"user","type":"address"},{"indexed":false,"internalType":"uint256","name":"amount","type":"uint256"}],"name":"Claimed","type":"event"},{"anonymous":false,"inputs":[{"indexed":true,"internalType":"address","name":"user","type":"address"},{"indexed":false,"internalType":"uint256","name":"amount","type":"uint256"}],"name":"Deposited","type":"event"},{"anonymous":false,"inputs":[{"indexed":true,"internalType":"address","name":"newOracle","type":"address"}],"name":"OracleUpdated","type":"event"},{"anonymous":false,"inputs":[{"indexed":true,"internalType":"address","name":"previousOwner","type":"address"},{"indexed":true,"internalType":"address","name":"newOwner","type":"address"}],"name":"OwnershipTransferred","type":"event"},{"anonymous":false,"inputs":[{"indexed":false,"internalType":"address","name":"account","type":"address"}],"name":"Paused","type":"event"},{"anonymous":false,"inputs":[{"indexed":true,"internalType":"uint256","name":"roundId","type":"uint256"}],"name":"RoundCancelled","type":"event"},{"anonymous":false,"inputs":[{"indexed":true,"internalType":"uint256","name":"roundId","type":"uint256"},{"indexed":false,"internalType":"string","name":"asset","type":"string"},{"indexed":false,"internalType":"string","name":"timeframe","type":"string"},{"indexed":false,"internalType":"uint256","name":"closeTime","type":"uint256"}],"name":"RoundCreated","type":"event"},{"anonymous":false,"inputs":[{"indexed":true,"internalType":"uint256","name":"roundId","type":"uint256"},{"indexed":false,"internalType":"uint256","name":"closePrice","type":"uint256"},{"indexed":false,"internalType":"bool","name":"upWon","type":"bool"}],"name":"RoundSettled","type":"event"},{"anonymous":false,"inputs":[{"indexed":false,"internalType":"address","name":"account","type":"address"}],"name":"Unpaused","type":"event"},{"anonymous":false,"inputs":[{"indexed":true,"internalType":"address","name":"user","type":"address"},{"indexed":false,"internalType":"uint256","name":"amount","type":"uint256"},{"indexed":false,"internalType":"uint256","name":"fee","type":"uint256"}],"name":"Withdrawn","type":"event"},{"inputs":[],"name":"FEE_DENOM","outputs":[{"internalType":"uint256","name":"","type":"uint256"}],"stateMutability":"view","type":"function"},{"inputs":[],"name":"HOUSE_FEE_BPS","outputs":[{"internalType":"uint256","name":"","type":"uint256"}],"stateMutability":"view","type":"function"},{"inputs":[{"internalType":"address","name":"","type":"address"}],"name":"balances","outputs":[{"internalType":"uint256","name":"","type":"uint256"}],"stateMutability":"view","type":"function"},{"inputs":[{"internalType":"uint256","name":"","type":"uint256"},{"internalType":"address","name":"","type":"address"}],"name":"bets","outputs":[{"internalType":"uint256","name":"amount","type":"uint256"},{"internalType":"bool","name":"isUp","type":"bool"},{"internalType":"bool","name":"claimed","type":"bool"}],"stateMutability":"view","type":"function"},{"inputs":[{"internalType":"uint256","name":"roundId","type":"uint256"}],"name":"claimRefund","outputs":[],"stateMutability":"nonpayable","type":"function"},{"inputs":[{"internalType":"uint256","name":"roundId","type":"uint256"}],"name":"claimWinnings","outputs":[],"stateMutability":"nonpayable","type":"function"},{"inputs":[{"internalType":"uint256","name":"amount","type":"uint256"}],"name":"collectFees","outputs":[],"stateMutability":"nonpayable","type":"function"},{"inputs":[{"internalType":"string","name":"asset","type":"string"},{"internalType":"string","name":"timeframe","type":"string"},{"internalType":"uint256","name":"openPrice","type":"uint256"},{"internalType":"uint256","name":"closeTime","type":"uint256"}],"name":"createRound","outputs":[{"internalType":"uint256","name":"roundId","type":"uint256"}],"stateMutability":"nonpayable","type":"function"},{"inputs":[{"internalType":"uint256","name":"amount","type":"uint256"}],"name":"deposit","outputs":[],"stateMutability":"nonpayable","type":"function"},{"inputs":[{"internalType":"address[]","name":"users","type":"address[]"}],"name":"emergencyWithdrawFor","outputs":[],"stateMutability":"nonpayable","type":"function"},{"inputs":[{"internalType":"address","name":"user","type":"address"}],"name":"getBalance","outputs":[{"internalType":"uint256","name":"","type":"uint256"}],"stateMutability":"view","type":"function"},{"inputs":[{"internalType":"uint256","name":"roundId","type":"uint256"},{"internalType":"address","name":"user","type":"address"}],"name":"getBet","outputs":[{"components":[{"internalType":"uint256","name":"amount","type":"uint256"},{"internalType":"bool","name":"isUp","type":"bool"},{"internalType":"bool","name":"claimed","type":"bool"}],"internalType":"struct ChartClash.Bet","name":"","type":"tuple"}],"stateMutability":"view","type":"function"},{"inputs":[{"internalType":"uint256","name":"roundId","type":"uint256"}],"name":"getRound","outputs":[{"components":[{"internalType":"string","name":"asset","type":"string"},{"internalType":"string","name":"timeframe","type":"string"},{"internalType":"uint256","name":"openPrice","type":"uint256"},{"internalType":"uint256","name":"closeTime","type":"uint256"},{"internalType":"uint256","name":"upPool","type":"uint256"},{"internalType":"uint256","name":"downPool","type":"uint256"},{"internalType":"uint256","name":"closePrice","type":"uint256"},{"internalType":"bool","name":"settled","type":"bool"},{"internalType":"bool","name":"cancelled","type":"bool"}],"internalType":"struct ChartClash.Round","name":"","type":"tuple"}],"stateMutability":"view","type":"function"},{"inputs":[],"name":"nextRoundId","outputs":[{"internalType":"uint256","name":"","type":"uint256"}],"stateMutability":"view","type":"function"},{"inputs":[],"name":"oracle","outputs":[{"internalType":"address","name":"","type":"address"}],"stateMutability":"view","type":"function"},{"inputs":[],"name":"owner","outputs":[{"internalType":"address","name":"","type":"address"}],"stateMutability":"view","type":"function"},{"inputs":[],"name":"pause","outputs":[],"stateMutability":"nonpayable","type":"function"},{"inputs":[],"name":"paused","outputs":[{"internalType":"bool","name":"","type":"bool"}],"stateMutability":"view","type":"function"},{"inputs":[{"internalType":"uint256","name":"roundId","type":"uint256"},{"internalType":"bool","name":"isUp","type":"bool"},{"internalType":"uint256","name":"amount","type":"uint256"}],"name":"placeBet","outputs":[],"stateMutability":"nonpayable","type":"function"},{"inputs":[{"internalType":"uint256","name":"roundId","type":"uint256"},{"internalType":"bool","name":"isUp","type":"bool"},{"internalType":"uint256","name":"betAmount","type":"uint256"}],"name":"previewPayout","outputs":[{"internalType":"uint256","name":"estimatedPayout","type":"uint256"}],"stateMutability":"view","type":"function"},{"inputs":[],"name":"renounceOwnership","outputs":[],"stateMutability":"nonpayable","type":"function"},{"inputs":[{"internalType":"uint256","name":"","type":"uint256"}],"name":"rounds","outputs":[{"internalType":"string","name":"asset","type":"string"},{"internalType":"string","name":"timeframe","type":"string"},{"internalType":"uint256","name":"openPrice","type":"uint256"},{"internalType":"uint256","name":"closeTime","type":"uint256"},{"internalType":"uint256","name":"upPool","type":"uint256"},{"internalType":"uint256","name":"downPool","type":"uint256"},{"internalType":"uint256","name":"closePrice","type":"uint256"},{"internalType":"bool","name":"settled","type":"bool"},{"internalType":"bool","name":"cancelled","type":"bool"}],"stateMutability":"view","type":"function"},{"inputs":[{"internalType":"address","name":"_oracle","type":"address"}],"name":"setOracle","outputs":[],"stateMutability":"nonpayable","type":"function"},{"inputs":[{"internalType":"uint256","name":"_bps","type":"uint256"}],"name":"setWithdrawFee","outputs":[],"stateMutability":"nonpayable","type":"function"},{"inputs":[{"internalType":"uint256","name":"roundId","type":"uint256"},{"internalType":"uint256","name":"closePrice","type":"uint256"}],"name":"settleRound","outputs":[],"stateMutability":"nonpayable","type":"function"},{"inputs":[{"internalType":"address","name":"newOwner","type":"address"}],"name":"transferOwnership","outputs":[],"stateMutability":"nonpayable","type":"function"},{"inputs":[],"name":"unpause","outputs":[],"stateMutability":"nonpayable","type":"function"},{"inputs":[],"name":"usdt","outputs":[{"internalType":"contract IERC20","name":"","type":"address"}],"stateMutability":"view","type":"function"},{"inputs":[{"internalType":"uint256","name":"amount","type":"uint256"}],"name":"withdraw","outputs":[],"stateMutability":"nonpayable","type":"function"},{"inputs":[],"name":"withdrawFeeBps","outputs":[{"internalType":"uint256","name":"","type":"uint256"}],"stateMutability":"view","type":"function"}],"evm":{"bytecode":{"linkReferences":{},"object":"60a0604052606460025560016006553480156200001b57600080fd5b50604051620024ee380380620024ee8339810160408190526200003e91620001e5565b60017f9b779b17422d0df92223018b32b4d1fa46e071723d6817e2486d003becc55f005533806200008a57604051631e4fbdf760e01b8152600060048201526024015b60405180910390fd5b62000095816200016f565b506001600160a01b038216620000ee5760405162461bcd60e51b815260206004820152601460248201527f496e76616c696420555344542061646472657373000000000000000000000000604482015260640162000081565b6001600160a01b038116620001465760405162461bcd60e51b815260206004820152601660248201527f496e76616c6964206f7261636c65206164647265737300000000000000000000604482015260640162000081565b6001600160a01b03918216608052600180546001600160a01b031916919092161790556200021d565b600080546001600160a01b03838116610100818102610100600160a81b0319851617855560405193049190911692909183917f8be0079c531659141344cd1fd0a4f28419497f9722a3daafe3b4186f6b6457e091a35050565b80516001600160a01b0381168114620001e057600080fd5b919050565b60008060408385031215620001f957600080fd5b6200020483620001c8565b91506200021460208401620001c8565b90509250929050565b6080516122a06200024e60003960008181610248015281816108b401528181610c2a015261160501526122a06000f3fe608060405234801561001057600080fd5b50600436106101da5760003560e01c80637aca2b5911610104578063b17acdcd116100a2578063e48262f211610071578063e48262f214610420578063f2fde38b14610433578063f644b3bb14610446578063f8b2cb4f146104a157600080fd5b8063b17acdcd146103ae578063b6ac642a146103c1578063b6b55f25146103d4578063e0950ddf146103e757600080fd5b80638456cb59116100de5780638456cb59146103485780638c65c81f146103505780638da5cb5b146103785780638f1327c01461038e57600080fd5b80637aca2b59146103195780637adbf973146103225780637dc0d1d01461033557600080fd5b80633f4ba83a1161017c5780635c6f16e21161014b5780635c6f16e2146102d55780635c975abb146102e8578063677bd9ff146102fe578063715018a61461031157600080fd5b80633f4ba83a146102a85780634002eda6146102b05780634886c675146102b95780635b7baf64146102c257600080fd5b80632e1a7d4d116101b85780632e1a7d4d146102305780632f48ab7d146102435780633323dc17146102825780633d9185761461029557600080fd5b80631594b256146101df5780631a38cac6146101fb57806327e235e314610210575b600080fd5b6101e861012c81565b6040519081526020015b60405180910390f35b61020e610209366004611c66565b6104ca565b005b6101e861021e366004611cbf565b60036020526000908152604090205481565b61020e61023e366004611cda565b6107cc565b61026a7f000000000000000000000000000000000000000000000000000000000000000081565b6040516001600160a01b0390911681526020016101f2565b61020e610290366004611cf3565b610932565b61020e6102a3366004611d15565b610b45565b61020e610c64565b6101e860065481565b6101e861271081565b61020e6102d0366004611cda565b610c76565b6101e86102e3366004611c66565b610e00565b60005460ff1660405190151581526020016101f2565b61020e61030c366004611cda565b610ec8565b61020e611137565b6101e860025481565b61020e610330366004611cbf565b611149565b60015461026a906001600160a01b031681565b61020e6111e2565b61036361035e366004611cda565b6111f2565b6040516101f299989796959493929190611dd0565b60005461010090046001600160a01b031661026a565b6103a161039c366004611cda565b611351565b6040516101f29190611e35565b61020e6103bc366004611cda565b611539565b61020e6103cf366004611cda565b61155b565b61020e6103e2366004611cda565b6115a3565b6103fa6103f5366004611ecd565b611679565b6040805182518152602080840151151590820152918101511515908201526060016101f2565b6101e861042e366004611f42565b6116e7565b61020e610441366004611cbf565b611934565b610484610454366004611ecd565b60056020908152600092835260408084209091529082529020805460019091015460ff8082169161010090041683565b6040805193845291151560208401521515908201526060016101f2565b6101e86104af366004611cbf565b6001600160a01b031660009081526003602052604090205490565b6104d261196f565b6104da61198b565b600083815260046020526040902060038101546105355760405162461bcd60e51b8152602060048201526014602482015273149bdd5b9908191bd95cc81b9bdd08195e1a5cdd60621b60448201526064015b60405180910390fd5b8060030154421061057a5760405162461bcd60e51b815260206004820152600f60248201526e149bdd5b99081a5cc818db1bdcd959608a1b604482015260640161052c565b600781015460ff1615801561059957506007810154610100900460ff16155b6105d35760405162461bcd60e51b815260206004820152600b60248201526a149bdd5b9908195b99195960aa1b604482015260640161052c565b6000848152600560209081526040808320338452909152902054156106335760405162461bcd60e51b8152602060048201526016602482015275105b1c9958591e4818995d081d1a1a5cc81c9bdd5b9960521b604482015260640161052c565b600082116106535760405162461bcd60e51b815260040161052c90611fc0565b336000908152600360205260409020548211156106a95760405162461bcd60e51b8152602060048201526014602482015273496e73756666696369656e742062616c616e636560601b604482015260640161052c565b33600090815260036020526040812080548492906106c8908490611ffb565b90915550506040805160608101825283815284158015602080840191825260008486018181528a82526005835286822033835290925294909420925183555160019092018054935161ffff1990941692151561ff0019169290921761010093151593909302929092179055610756578181600401600082825461074b919061200e565b909155506107709050565b8181600501600082825461076a919061200e565b90915550505b60408051841515815260208101849052339186917f4af71b021e799c62c158bd54636ca8da2fa26115a21a2dc6efe486ec104fd15f910160405180910390a3506107c7600160008051602061224b83398151915255565b505050565b6107d461196f565b6107dc61198b565b600081116107fc5760405162461bcd60e51b815260040161052c90611fc0565b336000908152600360205260409020548111156108525760405162461bcd60e51b8152602060048201526014602482015273496e73756666696369656e742062616c616e636560601b604482015260640161052c565b6000612710600254836108659190612021565b61086f9190612038565b9050600061087d8284611ffb565b336000908152600360205260408120805492935085929091906108a1908490611ffb565b909155506108db90506001600160a01b037f00000000000000000000000000000000000000000000000000000000000000001633836119af565b604080518281526020810184905233917f92ccf450a286a957af52509bc1c9939d1a6a481783e142e41e2499f0bb66ebc6910160405180910390a2505061092f600160008051602061224b83398151915255565b50565b6001546001600160a01b0316331461098c5760405162461bcd60e51b815260206004820181905260248201527f4368617274436c6173683a2063616c6c6572206973206e6f74206f7261636c65604482015260640161052c565b600082815260046020526040902060038101546109e25760405162461bcd60e51b8152602060048201526014602482015273149bdd5b9908191bd95cc81b9bdd08195e1a5cdd60621b604482015260640161052c565b8060030154421015610a2d5760405162461bcd60e51b8152602060048201526014602482015273149bdd5b99081b9bdd0818db1bdcd959081e595d60621b604482015260640161052c565b600781015460ff16158015610a4c57506007810154610100900460ff16155b610a8c5760405162461bcd60e51b8152602060048201526011602482015270105b1c9958591e48199a5b985b1a5e9959607a1b604482015260640161052c565b6006810182905560048101541580610aa657506005810154155b15610aec5760078101805461ff00191661010017905560405183907fbf7aeff89cf7a4c3d0145879e39aa6a19e8e64ed585090ef86bf31f4d2ae57bf90600090a2505050565b60078101805460ff19166001179055600281015460408051848152918411602083018190529185917fe7febaff6b3a6421d546f752cce8859a16914b6aa5f750527ad0229d89bfd4cf910160405180910390a250505050565b610b4d6119e4565b610b55611a17565b60005b818110156107c757600060036000858585818110610b7857610b7861205a565b9050602002016020810190610b8d9190611cbf565b6001600160a01b0316815260208101919091526040016000205490508015610c5157600060036000868686818110610bc757610bc761205a565b9050602002016020810190610bdc9190611cbf565b6001600160a01b03168152602081019190915260400160002055610c51848484818110610c0b57610c0b61205a565b9050602002016020810190610c209190611cbf565b6001600160a01b037f00000000000000000000000000000000000000000000000000000000000000001690836119af565b5080610c5c81612070565b915050610b58565b610c6c6119e4565b610c74611a3a565b565b610c7e61196f565b60008181526004602052604090206007810154610100900460ff16610cdb5760405162461bcd60e51b8152602060048201526013602482015272149bdd5b99081b9bdd0818d85b98d95b1b1959606a1b604482015260640161052c565b600082815260056020908152604080832033845290915290208054610d2b5760405162461bcd60e51b8152602060048201526006602482015265139bc818995d60d21b604482015260640161052c565b6001810154610100900460ff1615610d775760405162461bcd60e51b815260206004820152600f60248201526e105b1c9958591e4818db185a5b5959608a1b604482015260640161052c565b60018101805461ff00191661010017905580543360009081526003602052604081208054909190610da990849061200e565b90915550508054604051908152339084907f4ec90e965519d92681267467f775ada5bd214aa92c0dc93d90a5e880ce9ed0269060200160405180910390a3505061092f600160008051602061224b83398151915255565b60008381526004602052604081208184610e2957838260050154610e24919061200e565b610e39565b838260040154610e39919061200e565b9050600085610e4c578260040154610e52565b82600501545b9050811580610e5f575080155b15610e6f57849350505050610ec1565b6000612710610e8061012c82611ffb565b610e8a9084612021565b610e949190612038565b9050600083610ea38389612021565b610ead9190612038565b9050610eb9818861200e565b955050505050505b9392505050565b610ed061196f565b6000818152600460205260409020600781015460ff16610f265760405162461bcd60e51b8152602060048201526011602482015270149bdd5b99081b9bdd081cd95d1d1b1959607a1b604482015260640161052c565b600082815260056020908152604080832033845290915290208054610f765760405162461bcd60e51b8152602060048201526006602482015265139bc818995d60d21b604482015260640161052c565b6001810154610100900460ff1615610fc25760405162461bcd60e51b815260206004820152600f60248201526e105b1c9958591e4818db185a5b5959608a1b604482015260640161052c565b60028201546006830154600183015491109060ff161515811461101d5760405162461bcd60e51b8152602060048201526013602482015272165bdd481b1bdcdd081d1a1a5cc81c9bdd5b99606a1b604482015260640161052c565b60018201805461ff00191661010017905560008161103f578360050154611045565b83600401545b905060008261105857846004015461105e565b84600501545b9050600061271061107161012c82611ffb565b61107b9084612021565b6110859190612038565b905060008382876000015461109a9190612021565b6110a49190612038565b905060008187600001546110b8919061200e565b336000908152600360205260408120805492935083929091906110dc90849061200e565b909155505060405181815233908a907f4ec90e965519d92681267467f775ada5bd214aa92c0dc93d90a5e880ce9ed0269060200160405180910390a3505050505050505061092f600160008051602061224b83398151915255565b61113f6119e4565b610c746000611a8c565b6111516119e4565b6001600160a01b0381166111985760405162461bcd60e51b815260206004820152600e60248201526d496e76616c6964206f7261636c6560901b604482015260640161052c565b600180546001600160a01b0319166001600160a01b0383169081179091556040517f3df77beb5db05fcdd70a30fc8adf3f83f9501b68579455adbd100b818094039490600090a250565b6111ea6119e4565b610c74611ae5565b60046020526000908152604090208054819061120d90612089565b80601f016020809104026020016040519081016040528092919081815260200182805461123990612089565b80156112865780601f1061125b57610100808354040283529160200191611286565b820191906000526020600020905b81548152906001019060200180831161126957829003601f168201915b50505050509080600101805461129b90612089565b80601f01602080910402602001604051908101604052809291908181526020018280546112c790612089565b80156113145780601f106112e957610100808354040283529160200191611314565b820191906000526020600020905b8154815290600101906020018083116112f757829003601f168201915b5050506002840154600385015460048601546005870154600688015460079098015496979396929550909350919060ff8082169161010090041689565b6113a4604051806101200160405280606081526020016060815260200160008152602001600081526020016000815260200160008152602001600081526020016000151581526020016000151581525090565b60008281526004602052604090819020815161012081019092528054829082906113cd90612089565b80601f01602080910402602001604051908101604052809291908181526020018280546113f990612089565b80156114465780601f1061141b57610100808354040283529160200191611446565b820191906000526020600020905b81548152906001019060200180831161142957829003601f168201915b5050505050815260200160018201805461145f90612089565b80601f016020809104026020016040519081016040528092919081815260200182805461148b90612089565b80156114d85780601f106114ad576101008083540402835291602001916114d8565b820191906000526020600020905b8154815290600101906020018083116114bb57829003601f168201915b505050918352505060028201546020820152600382015460408201526004820154606082015260058201546080820152600682015460a082015260079091015460ff808216151560c084015261010090910416151560e09091015292915050565b6115416119e4565b60005461092f9061010090046001600160a01b0316610c20565b6115636119e4565b6101f481111561159e5760405162461bcd60e51b81526020600482015260066024820152654d617820352560d01b604482015260640161052c565b600255565b6115ab61196f565b6115b361198b565b600081116115d35760405162461bcd60e51b815260040161052c90611fc0565b33600090815260036020526040812080548392906115f290849061200e565b9091555061162d90506001600160a01b037f000000000000000000000000000000000000000000000000000000000000000016333084611b22565b60405181815233907f2da466a7b24304f47e87fa2e1e5a81b9831ce54fec19055ce277ca2f39ba42c49060200160405180910390a261092f600160008051602061224b83398151915255565b604080516060808201835260008083526020808401829052928401819052858152600583528381206001600160a01b0386168252835283902083519182018452805482526001015460ff80821615159383019390935261010090049091161515918101919091525b92915050565b6001546000906001600160a01b031633146117445760405162461bcd60e51b815260206004820181905260248201527f4368617274436c6173683a2063616c6c6572206973206e6f74206f7261636c65604482015260640161052c565b4282116117935760405162461bcd60e51b815260206004820152601c60248201527f436c6f73652074696d65206d75737420626520696e2066757475726500000000604482015260640161052c565b600680549060006117a383612070565b90915550604080516101406020601f8b01819004028201810190925261012081018981529293509182918a908a9081908501838280828437600092019190915250505090825250604080516020601f890181900481028201810190925287815291810191908890889081908401838280828437600092018290525093855250505060208083018790526040808401879052606084018390526080840183905260a0840183905260c0840183905260e090930182905284825260049052208151819061186e9082612127565b50602082015160018201906118839082612127565b506040828101516002830155606083015160038301556080830151600483015560a0830151600583015560c0830151600683015560e0830151600790920180546101009485015161ffff1990911693151561ff00191693909317921515909302919091179091555181907fca4e7b7f1ced7b96471eb33c82c804eaa9a2c15ae22d72963f27cad2d3bcb4ad90611922908a908a908a908a908990612210565b60405180910390a29695505050505050565b61193c6119e4565b6001600160a01b03811661196657604051631e4fbdf760e01b81526000600482015260240161052c565b61092f81611a8c565b611977611b5e565b600260008051602061224b83398151915255565b60005460ff1615610c745760405163d93c066560e01b815260040160405180910390fd5b6119bc8383836001611b8e565b6107c757604051635274afe760e01b81526001600160a01b038416600482015260240161052c565b6000546001600160a01b03610100909104163314610c745760405163118cdaa760e01b815233600482015260240161052c565b60005460ff16610c7457604051638dfc202b60e01b815260040160405180910390fd5b611a42611a17565b6000805460ff191690557f5db9ee0a495bf2e6ff9c91a7834c1ba4fdd244a5e8aa4e537bd38aeae4b073aa335b6040516001600160a01b03909116815260200160405180910390a1565b600080546001600160a01b03838116610100818102610100600160a81b0319851617855560405193049190911692909183917f8be0079c531659141344cd1fd0a4f28419497f9722a3daafe3b4186f6b6457e091a35050565b611aed61198b565b6000805460ff191660011790557f62e78cea01bee320cd4e420270b5ea74000d11b0c9f74754ebdbfc544b05a258611a6f3390565b611b30848484846001611bf4565b611b5857604051635274afe760e01b81526001600160a01b038516600482015260240161052c565b50505050565b60008051602061224b83398151915254600203610c7457604051633ee5aeb560e01b815260040160405180910390fd5b60405163a9059cbb60e01b60008181526001600160a01b038616600452602485905291602083604481808b5af192506001600051148316611be8578383151615611bdb573d6000823e3d81fd5b6000873b113d1516831692505b60405250949350505050565b6040516323b872dd60e01b60008181526001600160a01b038781166004528616602452604485905291602083606481808c5af192506001600051148316611c54578383151615611c47573d6000823e3d81fd5b6000883b113d1516831692505b60405250600060605295945050505050565b600080600060608486031215611c7b57600080fd5b8335925060208401358015158114611c9257600080fd5b929592945050506040919091013590565b80356001600160a01b0381168114611cba57600080fd5b919050565b600060208284031215611cd157600080fd5b610ec182611ca3565b600060208284031215611cec57600080fd5b5035919050565b60008060408385031215611d0657600080fd5b50508035926020909101359150565b60008060208385031215611d2857600080fd5b823567ffffffffffffffff80821115611d4057600080fd5b818501915085601f830112611d5457600080fd5b813581811115611d6357600080fd5b8660208260051b8501011115611d7857600080fd5b60209290920196919550909350505050565b6000815180845260005b81811015611db057602081850181015186830182015201611d94565b506000602082860101526020601f19601f83011685010191505092915050565b6000610120808352611de48184018d611d8a565b90508281036020840152611df8818c611d8a565b604084019a909a5250506060810196909652608086019490945260a085019290925260c0840152151560e083015215156101009091015292915050565b6020815260008251610120806020850152611e54610140850183611d8a565b91506020850151601f19858403016040860152611e718382611d8a565b9250506040850151606085015260608501516080850152608085015160a085015260a085015160c085015260c085015160e085015260e0850151610100611ebb8187018315159052565b90950151151593019290925250919050565b60008060408385031215611ee057600080fd5b82359150611ef060208401611ca3565b90509250929050565b60008083601f840112611f0b57600080fd5b50813567ffffffffffffffff811115611f2357600080fd5b602083019150836020828501011115611f3b57600080fd5b9250929050565b60008060008060008060808789031215611f5b57600080fd5b863567ffffffffffffffff80821115611f7357600080fd5b611f7f8a838b01611ef9565b90985096506020890135915080821115611f9857600080fd5b50611fa589828a01611ef9565b979a9699509760408101359660609091013595509350505050565b6020808252600b908201526a16995c9bc8185b5bdd5b9d60aa1b604082015260600190565b634e487b7160e01b600052601160045260246000fd5b818103818111156116e1576116e1611fe5565b808201808211156116e1576116e1611fe5565b80820281158282048414176116e1576116e1611fe5565b60008261205557634e487b7160e01b600052601260045260246000fd5b500490565b634e487b7160e01b600052603260045260246000fd5b60006001820161208257612082611fe5565b5060010190565b600181811c9082168061209d57607f821691505b6020821081036120bd57634e487b7160e01b600052602260045260246000fd5b50919050565b634e487b7160e01b600052604160045260246000fd5b601f8211156107c757600081815260208120601f850160051c810160208610156121005750805b601f850160051c820191505b8181101561211f5782815560010161210c565b505050505050565b815167ffffffffffffffff811115612141576121416120c3565b6121558161214f8454612089565b846120d9565b602080601f83116001811461218a57600084156121725750858301515b600019600386901b1c1916600185901b17855561211f565b600085815260208120601f198616915b828110156121b95788860151825594840194600190910190840161219a565b50858210156121d75787850151600019600388901b60f8161c191681555b5050505050600190811b01905550565b81835281816020850137506000828201602090810191909152601f909101601f19169091010190565b6060815260006122246060830187896121e7565b82810360208401526122378186886121e7565b915050826040830152969550505050505056fe9b779b17422d0df92223018b32b4d1fa46e071723d6817e2486d003becc55f00a2646970667358221220a7e37a7f01074f6e8a6d4dfee50b2bd23b0db0d797d2c851eb2321534f79a1ab64736f6c63430008140033","opcodes":"PUSH1 0xA0 PUSH1 0x40 MSTORE PUSH1 0x64 PUSH1 0x2 SSTORE PUSH1 0x1 PUSH1 0x6 SSTORE CALLVALUE DUP1 ISZERO PUSH3 0x1B JUMPI PUSH1 0x0 DUP1 REVERT JUMPDEST POP PUSH1 0x40 MLOAD PUSH3 0x24EE CODESIZE SUB DUP1 PUSH3 0x24EE DUP4 CODECOPY DUP2 ADD PUSH1 0x40 DUP2 SWAP1 MSTORE PUSH3 0x3E SWAP2 PUSH3 0x1E5 JUMP JUMPDEST PUSH1 0x1 PUSH32 0x9B779B17422D0DF92223018B32B4D1FA46E071723D6817E2486D003BECC55F00 SSTORE CALLER DUP1 PUSH3 0x8A JUMPI PUSH1 0x40 MLOAD PUSH4 0x1E4FBDF7 PUSH1 0xE0 SHL DUP2 MSTORE PUSH1 0x0 PUSH1 0x4 DUP3 ADD MSTORE PUSH1 0x24 ADD JUMPDEST PUSH1 0x40 MLOAD DUP1 SWAP2 SUB SWAP1 REVERT JUMPDEST PUSH3 0x95 DUP2 PUSH3 0x16F JUMP JUMPDEST POP PUSH1 0x1 PUSH1 0x1 PUSH1 0xA0 SHL SUB DUP3 AND PUSH3 0xEE JUMPI PUSH1 0x40 MLOAD PUSH3 0x461BCD PUSH1 0xE5 SHL DUP2 MSTORE PUSH1 0x20 PUSH1 0x4 DUP3 ADD MSTORE PUSH1 0x14 PUSH1 0x24 DUP3 ADD MSTORE PUSH32 0x496E76616C696420555344542061646472657373000000000000000000000000 PUSH1 0x44 DUP3 ADD MSTORE PUSH1 0x64 ADD PUSH3 0x81 JUMP JUMPDEST PUSH1 0x1 PUSH1 0x1 PUSH1 0xA0 SHL SUB DUP2 AND PUSH3 0x146 JUMPI PUSH1 0x40 MLOAD PUSH3 0x461BCD PUSH1 0xE5 SHL DUP2 MSTORE PUSH1 0x20 PUSH1 0x4 DUP3 ADD MSTORE PUSH1 0x16 PUSH1 0x24 DUP3 ADD MSTORE PUSH32 0x496E76616C6964206F7261636C65206164647265737300000000000000000000 PUSH1 0x44 DUP3 ADD MSTORE PUSH1 0x64 ADD PUSH3 0x81 JUMP JUMPDEST PUSH1 0x1 PUSH1 0x1 PUSH1 0xA0 SHL SUB SWAP2 DUP3 AND PUSH1 0x80 MSTORE PUSH1 0x1 DUP1 SLOAD PUSH1 0x1 PUSH1 0x1 PUSH1 0xA0 SHL SUB NOT AND SWAP2 SWAP1 SWAP3 AND OR SWAP1 SSTORE PUSH3 0x21D JUMP JUMPDEST PUSH1 0x0 DUP1 SLOAD PUSH1 0x1 PUSH1 0x1 PUSH1 0xA0 SHL SUB DUP4 DUP2 AND PUSH2 0x100 DUP2 DUP2 MUL PUSH2 0x100 PUSH1 0x1 PUSH1 0xA8 SHL SUB NOT DUP6 AND OR DUP6 SSTORE PUSH1 0x40 MLOAD SWAP4 DIV SWAP2 SWAP1 SWAP2 AND SWAP3 SWAP1 SWAP2 DUP4 SWAP2 PUSH32 0x8BE0079C531659141344CD1FD0A4F28419497F9722A3DAAFE3B4186F6B6457E0 SWAP2 LOG3 POP POP JUMP JUMPDEST DUP1 MLOAD PUSH1 0x1 PUSH1 0x1 PUSH1 0xA0 SHL SUB DUP2 AND DUP2 EQ PUSH3 0x1E0 JUMPI PUSH1 0x0 DUP1 REVERT JUMPDEST SWAP2 SWAP1 POP JUMP JUMPDEST PUSH1 0x0 DUP1 PUSH1 0x40 DUP4 DUP6 SUB SLT ISZERO PUSH3 0x1F9 JUMPI PUSH1 0x0 DUP1 REVERT JUMPDEST PUSH3 0x204 DUP4 PUSH3 0x1C8 JUMP JUMPDEST SWAP2 POP PUSH3 0x214 PUSH1 0x20 DUP5 ADD PUSH3 0x1C8 JUMP JUMPDEST SWAP1 POP SWAP3 POP SWAP3 SWAP1 POP JUMP JUMPDEST PUSH1 0x80 MLOAD PUSH2 0x22A0 PUSH3 0x24E PUSH1 0x0 CODECOPY PUSH1 0x0 DUP2 DUP2 PUSH2 0x248 ADD MSTORE DUP2 DUP2 PUSH2 0x8B4 ADD MSTORE DUP2 DUP2 PUSH2 0xC2A ADD MSTORE PUSH2 0x1605 ADD MSTORE PUSH2 0x22A0 PUSH1 0x0 RETURN INVALID PUSH1 0x80 PUSH1 0x40 MSTORE CALLVALUE DUP1 ISZERO PUSH2 0x10 JUMPI PUSH1 0x0 DUP1 REVERT JUMPDEST POP PUSH1 0x4 CALLDATASIZE LT PUSH2 0x1DA JUMPI PUSH1 0x0 CALLDATALOAD PUSH1 0xE0 SHR DUP1 PUSH4 0x7ACA2B59 GT PUSH2 0x104 JUMPI DUP1 PUSH4 0xB17ACDCD GT PUSH2 0xA2 JUMPI DUP1 PUSH4 0xE48262F2 GT PUSH2 0x71 JUMPI DUP1 PUSH4 0xE48262F2 EQ PUSH2 0x420 JUMPI DUP1 PUSH4 0xF2FDE38B EQ PUSH2 0x433 JUMPI DUP1 PUSH4 0xF644B3BB EQ PUSH2 0x446 JUMPI DUP1 PUSH4 0xF8B2CB4F EQ PUSH2 0x4A1 JUMPI PUSH1 0x0 DUP1 REVERT JUMPDEST DUP1 PUSH4 0xB17ACDCD EQ PUSH2 0x3AE JUMPI DUP1 PUSH4 0xB6AC642A EQ PUSH2 0x3C1 JUMPI DUP1 PUSH4 0xB6B55F25 EQ PUSH2 0x3D4 JUMPI DUP1 PUSH4 0xE0950DDF EQ PUSH2 0x3E7 JUMPI PUSH1 0x0 DUP1 REVERT JUMPDEST DUP1 PUSH4 0x8456CB59 GT PUSH2 0xDE JUMPI DUP1 PUSH4 0x8456CB59 EQ PUSH2 0x348 JUMPI DUP1 PUSH4 0x8C65C81F EQ PUSH2 0x350 JUMPI DUP1 PUSH4 0x8DA5CB5B EQ PUSH2 0x378 JUMPI DUP1 PUSH4 0x8F1327C0 EQ PUSH2 0x38E JUMPI PUSH1 0x0 DUP1 REVERT JUMPDEST DUP1 PUSH4 0x7ACA2B59 EQ PUSH2 0x319 JUMPI DUP1 PUSH4 0x7ADBF973 EQ PUSH2 0x322 JUMPI DUP1 PUSH4 0x7DC0D1D0 EQ PUSH2 0x335 JUMPI PUSH1 0x0 DUP1 REVERT JUMPDEST DUP1 PUSH4 0x3F4BA83A GT PUSH2 0x17C JUMPI DUP1 PUSH4 0x5C6F16E2 GT PUSH2 0x14B JUMPI DUP1 PUSH4 0x5C6F16E2 EQ PUSH2 0x2D5 JUMPI DUP1 PUSH4 0x5C975ABB EQ PUSH2 0x2E8 JUMPI DUP1 PUSH4 0x677BD9FF EQ PUSH2 0x2FE JUMPI DUP1 PUSH4 0x715018A6 EQ PUSH2 0x311 JUMPI PUSH1 0x0 DUP1 REVERT JUMPDEST DUP1 PUSH4 0x3F4BA83A EQ PUSH2 0x2A8 JUMPI DUP1 PUSH4 0x4002EDA6 EQ PUSH2 0x2B0 JUMPI DUP1 PUSH4 0x4886C675 EQ PUSH2 0x2B9 JUMPI DUP1 PUSH4 0x5B7BAF64 EQ PUSH2 0x2C2 JUMPI PUSH1 0x0 DUP1 REVERT JUMPDEST DUP1 PUSH4 0x2E1A7D4D GT PUSH2 0x1B8 JUMPI DUP1 PUSH4 0x2E1A7D4D EQ PUSH2 0x230 JUMPI DUP1 PUSH4 0x2F48AB7D EQ PUSH2 0x243 JUMPI DUP1 PUSH4 0x3323DC17 EQ PUSH2 0x282 JUMPI DUP1 PUSH4 0x3D918576 EQ PUSH2 0x295 JUMPI PUSH1 0x0 DUP1 REVERT JUMPDEST DUP1 PUSH4 0x1594B256 EQ PUSH2 0x1DF JUMPI DUP1 PUSH4 0x1A38CAC6 EQ PUSH2 0x1FB JUMPI DUP1 PUSH4 0x27E235E3 EQ PUSH2 0x210 JUMPI JUMPDEST PUSH1 0x0 DUP1 REVERT JUMPDEST PUSH2 0x1E8 PUSH2 0x12C DUP2 JUMP JUMPDEST PUSH1 0x40 MLOAD SWAP1 DUP2 MSTORE PUSH1 0x20 ADD JUMPDEST PUSH1 0x40 MLOAD DUP1 SWAP2 SUB SWAP1 RETURN JUMPDEST PUSH2 0x20E PUSH2 0x209 CALLDATASIZE PUSH1 0x4 PUSH2 0x1C66 JUMP JUMPDEST PUSH2 0x4CA JUMP JUMPDEST STOP JUMPDEST PUSH2 0x1E8 PUSH2 0x21E CALLDATASIZE PUSH1 0x4 PUSH2 0x1CBF JUMP JUMPDEST PUSH1 0x3 PUSH1 0x20 MSTORE PUSH1 0x0 SWAP1 DUP2 MSTORE PUSH1 0x40 SWAP1 KECCAK256 SLOAD DUP2 JUMP JUMPDEST PUSH2 0x20E PUSH2 0x23E CALLDATASIZE PUSH1 0x4 PUSH2 0x1CDA JUMP JUMPDEST PUSH2 0x7CC JUMP JUMPDEST PUSH2 0x26A PUSH32 0x0 DUP2 JUMP JUMPDEST PUSH1 0x40 MLOAD PUSH1 0x1 PUSH1 0x1 PUSH1 0xA0 SHL SUB SWAP1 SWAP2 AND DUP2 MSTORE PUSH1 0x20 ADD PUSH2 0x1F2 JUMP JUMPDEST PUSH2 0x20E PUSH2 0x290 CALLDATASIZE PUSH1 0x4 PUSH2 0x1CF3 JUMP JUMPDEST PUSH2 0x932 JUMP JUMPDEST PUSH2 0x20E PUSH2 0x2A3 CALLDATASIZE PUSH1 0x4 PUSH2 0x1D15 JUMP JUMPDEST PUSH2 0xB45 JUMP JUMPDEST PUSH2 0x20E PUSH2 0xC64 JUMP JUMPDEST PUSH2 0x1E8 PUSH1 0x6 SLOAD DUP2 JUMP JUMPDEST PUSH2 0x1E8 PUSH2 0x2710 DUP2 JUMP JUMPDEST PUSH2 0x20E PUSH2 0x2D0 CALLDATASIZE PUSH1 0x4 PUSH2 0x1CDA JUMP JUMPDEST PUSH2 0xC76 JUMP JUMPDEST PUSH2 0x1E8 PUSH2 0x2E3 CALLDATASIZE PUSH1 0x4 PUSH2 0x1C66 JUMP JUMPDEST PUSH2 0xE00 JUMP JUMPDEST PUSH1 0x0 SLOAD PUSH1 0xFF AND PUSH1 0x40 MLOAD SWAP1 ISZERO ISZERO DUP2 MSTORE PUSH1 0x20 ADD PUSH2 0x1F2 JUMP JUMPDEST PUSH2 0x20E PUSH2 0x30C CALLDATASIZE PUSH1 0x4 PUSH2 0x1CDA JUMP JUMPDEST PUSH2 0xEC8 JUMP JUMPDEST PUSH2 0x20E PUSH2 0x1137 JUMP JUMPDEST PUSH2 0x1E8 PUSH1 0x2 SLOAD DUP2 JUMP JUMPDEST PUSH2 0x20E PUSH2 0x330 CALLDATASIZE PUSH1 0x4 PUSH2 0x1CBF JUMP JUMPDEST PUSH2 0x1149 JUMP JUMPDEST PUSH1 0x1 SLOAD PUSH2 0x26A SWAP1 PUSH1 0x1 PUSH1 0x1 PUSH1 0xA0 SHL SUB AND DUP2 JUMP JUMPDEST PUSH2 0x20E PUSH2 0x11E2 JUMP JUMPDEST PUSH2 0x363 PUSH2 0x35E CALLDATASIZE PUSH1 0x4 PUSH2 0x1CDA JUMP JUMPDEST PUSH2 0x11F2 JUMP JUMPDEST PUSH1 0x40 MLOAD PUSH2 0x1F2 SWAP10 SWAP9 SWAP8 SWAP7 SWAP6 SWAP5 SWAP4 SWAP3 SWAP2 SWAP1 PUSH2 0x1DD0 JUMP JUMPDEST PUSH1 0x0 SLOAD PUSH2 0x100 SWAP1 DIV PUSH1 0x1 PUSH1 0x1 PUSH1 0xA0 SHL SUB AND PUSH2 0x26A JUMP JUMPDEST PUSH2 0x3A1 PUSH2 0x39C CALLDATASIZE PUSH1 0x4 PUSH2 0x1CDA JUMP JUMPDEST PUSH2 0x1351 JUMP JUMPDEST PUSH1 0x40 MLOAD PUSH2 0x1F2 SWAP2 SWAP1 PUSH2 0x1E35 JUMP JUMPDEST PUSH2 0x20E PUSH2 0x3BC CALLDATASIZE PUSH1 0x4 PUSH2 0x1CDA JUMP JUMPDEST PUSH2 0x1539 JUMP JUMPDEST PUSH2 0x20E PUSH2 0x3CF CALLDATASIZE PUSH1 0x4 PUSH2 0x1CDA JUMP JUMPDEST PUSH2 0x155B JUMP JUMPDEST PUSH2 0x20E PUSH2 0x3E2 CALLDATASIZE PUSH1 0x4 PUSH2 0x1CDA JUMP JUMPDEST PUSH2 0x15A3 JUMP JUMPDEST PUSH2 0x3FA PUSH2 0x3F5 CALLDATASIZE PUSH1 0x4 PUSH2 0x1ECD JUMP JUMPDEST PUSH2 0x1679 JUMP JUMPDEST PUSH1 0x40 DUP1 MLOAD DUP3 MLOAD DUP2 MSTORE PUSH1 0x20 DUP1 DUP5 ADD MLOAD ISZERO ISZERO SWAP1 DUP3 ADD MSTORE SWAP2 DUP2 ADD MLOAD ISZERO ISZERO SWAP1 DUP3 ADD MSTORE PUSH1 0x60 ADD PUSH2 0x1F2 JUMP JUMPDEST PUSH2 0x1E8 PUSH2 0x42E CALLDATASIZE PUSH1 0x4 PUSH2 0x1F42 JUMP JUMPDEST PUSH2 0x16E7 JUMP JUMPDEST PUSH2 0x20E PUSH2 0x441 CALLDATASIZE PUSH1 0x4 PUSH2 0x1CBF JUMP JUMPDEST PUSH2 0x1934 JUMP JUMPDEST PUSH2 0x484 PUSH2 0x454 CALLDATASIZE PUSH1 0x4 PUSH2 0x1ECD JUMP JUMPDEST PUSH1 0x5 PUSH1 0x20 SWAP1 DUP2 MSTORE PUSH1 0x0 SWAP3 DUP4 MSTORE PUSH1 0x40 DUP1 DUP5 KECCAK256 SWAP1 SWAP2 MSTORE SWAP1 DUP3 MSTORE SWAP1 KECCAK256 DUP1 SLOAD PUSH1 0x1 SWAP1 SWAP2 ADD SLOAD PUSH1 0xFF DUP1 DUP3 AND SWAP2 PUSH2 0x100 SWAP1 DIV AND DUP4 JUMP JUMPDEST PUSH1 0x40 DUP1 MLOAD SWAP4 DUP5 MSTORE SWAP2 ISZERO ISZERO PUSH1 0x20 DUP5 ADD MSTORE ISZERO ISZERO SWAP1 DUP3 ADD MSTORE PUSH1 0x60 ADD PUSH2 0x1F2 JUMP JUMPDEST PUSH2 0x1E8 PUSH2 0x4AF CALLDATASIZE PUSH1 0x4 PUSH2 0x1CBF JUMP JUMPDEST PUSH1 0x1 PUSH1 0x1 PUSH1 0xA0 SHL SUB AND PUSH1 0x0 SWAP1 DUP2 MSTORE PUSH1 0x3 PUSH1 0x20 MSTORE PUSH1 0x40 SWAP1 KECCAK256 SLOAD SWAP1 JUMP JUMPDEST PUSH2 0x4D2 PUSH2 0x196F JUMP JUMPDEST PUSH2 0x4DA PUSH2 0x198B JUMP JUMPDEST PUSH1 0x0 DUP4 DUP2 MSTORE PUSH1 0x4 PUSH1 0x20 MSTORE PUSH1 0x40 SWAP1 KECCAK256 PUSH1 0x3 DUP2 ADD SLOAD PUSH2 0x535 JUMPI PUSH1 0x40 MLOAD PUSH3 0x461BCD PUSH1 0xE5 SHL DUP2 MSTORE PUSH1 0x20 PUSH1 0x4 DUP3 ADD MSTORE PUSH1 0x14 PUSH1 0x24 DUP3 ADD MSTORE PUSH20 0x149BDD5B9908191BD95CC81B9BDD08195E1A5CDD PUSH1 0x62 SHL PUSH1 0x44 DUP3 ADD MSTORE PUSH1 0x64 ADD JUMPDEST PUSH1 0x40 MLOAD DUP1 SWAP2 SUB SWAP1 REVERT JUMPDEST DUP1 PUSH1 0x3 ADD SLOAD TIMESTAMP LT PUSH2 0x57A JUMPI PUSH1 0x40 MLOAD PUSH3 0x461BCD PUSH1 0xE5 SHL DUP2 MSTORE PUSH1 0x20 PUSH1 0x4 DUP3 ADD MSTORE PUSH1 0xF PUSH1 0x24 DUP3 ADD MSTORE PUSH15 0x149BDD5B99081A5CC818DB1BDCD959 PUSH1 0x8A SHL PUSH1 0x44 DUP3 ADD MSTORE PUSH1 0x64 ADD PUSH2 0x52C JUMP JUMPDEST PUSH1 0x7 DUP2 ADD SLOAD PUSH1 0xFF AND ISZERO DUP1 ISZERO PUSH2 0x599 JUMPI POP PUSH1 0x7 DUP2 ADD SLOAD PUSH2 0x100 SWAP1 DIV PUSH1 0xFF AND ISZERO JUMPDEST PUSH2 0x5D3 JUMPI PUSH1 0x40 MLOAD PUSH3 0x461BCD PUSH1 0xE5 SHL DUP2 MSTORE PUSH1 0x20 PUSH1 0x4 DUP3 ADD MSTORE PUSH1 0xB PUSH1 0x24 DUP3 ADD MSTORE PUSH11 0x149BDD5B9908195B991959 PUSH1 0xAA SHL PUSH1 0x44 DUP3 ADD MSTORE PUSH1 0x64 ADD PUSH2 0x52C JUMP JUMPDEST PUSH1 0x0 DUP5 DUP2 MSTORE PUSH1 0x5 PUSH1 0x20 SWAP1 DUP2 MSTORE PUSH1 0x40 DUP1 DUP4 KECCAK256 CALLER DUP5 MSTORE SWAP1 SWAP2 MSTORE SWAP1 KECCAK256 SLOAD ISZERO PUSH2 0x633 JUMPI PUSH1 0x40 MLOAD PUSH3 0x461BCD PUSH1 0xE5 SHL DUP2 MSTORE PUSH1 0x20 PUSH1 0x4 DUP3 ADD MSTORE PUSH1 0x16 PUSH1 0x24 DUP3 ADD MSTORE PUSH22 0x105B1C9958591E4818995D081D1A1A5CC81C9BDD5B99 PUSH1 0x52 SHL PUSH1 0x44 DUP3 ADD MSTORE PUSH1 0x64 ADD PUSH2 0x52C JUMP JUMPDEST PUSH1 0x0 DUP3 GT PUSH2 0x653 JUMPI PUSH1 0x40 MLOAD PUSH3 0x461BCD PUSH1 0xE5 SHL DUP2 MSTORE PUSH1 0x4 ADD PUSH2 0x52C SWAP1 PUSH2 0x1FC0 JUMP JUMPDEST CALLER PUSH1 0x0 SWAP1 DUP2 MSTORE PUSH1 0x3 PUSH1 0x20 MSTORE PUSH1 0x40 SWAP1 KECCAK256 SLOAD DUP3 GT ISZERO PUSH2 0x6A9 JUMPI PUSH1 0x40 MLOAD PUSH3 0x461BCD PUSH1 0xE5 SHL DUP2 MSTORE PUSH1 0x20 PUSH1 0x4 DUP3 ADD MSTORE PUSH1 0x14 PUSH1 0x24 DUP3 ADD MSTORE PUSH20 0x496E73756666696369656E742062616C616E6365 PUSH1 0x60 SHL PUSH1 0x44 DUP3 ADD MSTORE PUSH1 0x64 ADD PUSH2 0x52C JUMP JUMPDEST CALLER PUSH1 0x0 SWAP1 DUP2 MSTORE PUSH1 0x3 PUSH1 0x20 MSTORE PUSH1 0x40 DUP2 KECCAK256 DUP1 SLOAD DUP5 SWAP3 SWAP1 PUSH2 0x6C8 SWAP1 DUP5 SWAP1 PUSH2 0x1FFB JUMP JUMPDEST SWAP1 SWAP2 SSTORE POP POP PUSH1 0x40 DUP1 MLOAD PUSH1 0x60 DUP2 ADD DUP3 MSTORE DUP4 DUP2 MSTORE DUP5 ISZERO DUP1 ISZERO PUSH1 0x20 DUP1 DUP5 ADD SWAP2 DUP3 MSTORE PUSH1 0x0 DUP5 DUP7 ADD DUP2 DUP2 MSTORE DUP11 DUP3 MSTORE PUSH1 0x5 DUP4 MSTORE DUP7 DUP3 KECCAK256 CALLER DUP4 MSTORE SWAP1 SWAP3 MSTORE SWAP5 SWAP1 SWAP5 KECCAK256 SWAP3 MLOAD DUP4 SSTORE MLOAD PUSH1 0x1 SWAP1 SWAP3 ADD DUP1 SLOAD SWAP4 MLOAD PUSH2 0xFFFF NOT SWAP1 SWAP5 AND SWAP3 ISZERO ISZERO PUSH2 0xFF00 NOT AND SWAP3 SWAP1 SWAP3 OR PUSH2 0x100 SWAP4 ISZERO ISZERO SWAP4 SWAP1 SWAP4 MUL SWAP3 SWAP1 SWAP3 OR SWAP1 SSTORE PUSH2 0x756 JUMPI DUP2 DUP2 PUSH1 0x4 ADD PUSH1 0x0 DUP3 DUP3 SLOAD PUSH2 0x74B SWAP2 SWAP1 PUSH2 0x200E JUMP JUMPDEST SWAP1 SWAP2 SSTORE POP PUSH2 0x770 SWAP1 POP JUMP JUMPDEST DUP2 DUP2 PUSH1 0x5 ADD PUSH1 0x0 DUP3 DUP3 SLOAD PUSH2 0x76A SWAP2 SWAP1 PUSH2 0x200E JUMP JUMPDEST SWAP1 SWAP2 SSTORE POP POP JUMPDEST PUSH1 0x40 DUP1 MLOAD DUP5 ISZERO ISZERO DUP2 MSTORE PUSH1 0x20 DUP2 ADD DUP5 SWAP1 MSTORE CALLER SWAP2 DUP7 SWAP2 PUSH32 0x4AF71B021E799C62C158BD54636CA8DA2FA26115A21A2DC6EFE486EC104FD15F SWAP2 ADD PUSH1 0x40 MLOAD DUP1 SWAP2 SUB SWAP1 LOG3 POP PUSH2 0x7C7 PUSH1 0x1 PUSH1 0x0 DUP1 MLOAD PUSH1 0x20 PUSH2 0x224B DUP4 CODECOPY DUP2 MLOAD SWAP2 MSTORE SSTORE JUMP JUMPDEST POP POP POP JUMP JUMPDEST PUSH2 0x7D4 PUSH2 0x196F JUMP JUMPDEST PUSH2 0x7DC PUSH2 0x198B JUMP JUMPDEST PUSH1 0x0 DUP2 GT PUSH2 0x7FC JUMPI PUSH1 0x40 MLOAD PUSH3 0x461BCD PUSH1 0xE5 SHL DUP2 MSTORE PUSH1 0x4 ADD PUSH2 0x52C SWAP1 PUSH2 0x1FC0 JUMP JUMPDEST CALLER PUSH1 0x0 SWAP1 DUP2 MSTORE PUSH1 0x3 PUSH1 0x20 MSTORE PUSH1 0x40 SWAP1 KECCAK256 SLOAD DUP2 GT ISZERO PUSH2 0x852 JUMPI PUSH1 0x40 MLOAD PUSH3 0x461BCD PUSH1 0xE5 SHL DUP2 MSTORE PUSH1 0x20 PUSH1 0x4 DUP3 ADD MSTORE PUSH1 0x14 PUSH1 0x24 DUP3 ADD MSTORE PUSH20 0x496E73756666696369656E742062616C616E6365 PUSH1 0x60 SHL PUSH1 0x44 DUP3 ADD MSTORE PUSH1 0x64 ADD PUSH2 0x52C JUMP JUMPDEST PUSH1 0x0 PUSH2 0x2710 PUSH1 0x2 SLOAD DUP4 PUSH2 0x865 SWAP2 SWAP1 PUSH2 0x2021 JUMP JUMPDEST PUSH2 0x86F SWAP2 SWAP1 PUSH2 0x2038 JUMP JUMPDEST SWAP1 POP PUSH1 0x0 PUSH2 0x87D DUP3 DUP5 PUSH2 0x1FFB JUMP JUMPDEST CALLER PUSH1 0x0 SWAP1 DUP2 MSTORE PUSH1 0x3 PUSH1 0x20 MSTORE PUSH1 0x40 DUP2 KECCAK256 DUP1 SLOAD SWAP3 SWAP4 POP DUP6 SWAP3 SWAP1 SWAP2 SWAP1 PUSH2 0x8A1 SWAP1 DUP5 SWAP1 PUSH2 0x1FFB JUMP JUMPDEST SWAP1 SWAP2 SSTORE POP PUSH2 0x8DB SWAP1 POP PUSH1 0x1 PUSH1 0x1 PUSH1 0xA0 SHL SUB PUSH32 0x0 AND CALLER DUP4 PUSH2 0x19AF JUMP JUMPDEST PUSH1 0x40 DUP1 MLOAD DUP3 DUP2 MSTORE PUSH1 0x20 DUP2 ADD DUP5 SWAP1 MSTORE CALLER SWAP2 PUSH32 0x92CCF450A286A957AF52509BC1C9939D1A6A481783E142E41E2499F0BB66EBC6 SWAP2 ADD PUSH1 0x40 MLOAD DUP1 SWAP2 SUB SWAP1 LOG2 POP POP PUSH2 0x92F PUSH1 0x1 PUSH1 0x0 DUP1 MLOAD PUSH1 0x20 PUSH2 0x224B DUP4 CODECOPY DUP2 MLOAD SWAP2 MSTORE SSTORE JUMP JUMPDEST POP JUMP JUMPDEST PUSH1 0x1 SLOAD PUSH1 0x1 PUSH1 0x1 PUSH1 0xA0 SHL SUB AND CALLER EQ PUSH2 0x98C JUMPI PUSH1 0x40 MLOAD PUSH3 0x461BCD PUSH1 0xE5 SHL DUP2 MSTORE PUSH1 0x20 PUSH1 0x4 DUP3 ADD DUP2 SWAP1 MSTORE PUSH1 0x24 DUP3 ADD MSTORE PUSH32 0x4368617274436C6173683A2063616C6C6572206973206E6F74206F7261636C65 PUSH1 0x44 DUP3 ADD MSTORE PUSH1 0x64 ADD PUSH2 0x52C JUMP JUMPDEST PUSH1 0x0 DUP3 DUP2 MSTORE PUSH1 0x4 PUSH1 0x20 MSTORE PUSH1 0x40 SWAP1 KECCAK256 PUSH1 0x3 DUP2 ADD SLOAD PUSH2 0x9E2 JUMPI PUSH1 0x40 MLOAD PUSH3 0x461BCD PUSH1 0xE5 SHL DUP2 MSTORE PUSH1 0x20 PUSH1 0x4 DUP3 ADD MSTORE PUSH1 0x14 PUSH1 0x24 DUP3 ADD MSTORE PUSH20 0x149BDD5B9908191BD95CC81B9BDD08195E1A5CDD PUSH1 0x62 SHL PUSH1 0x44 DUP3 ADD MSTORE PUSH1 0x64 ADD PUSH2 0x52C JUMP JUMPDEST DUP1 PUSH1 0x3 ADD SLOAD TIMESTAMP LT ISZERO PUSH2 0xA2D JUMPI PUSH1 0x40 MLOAD PUSH3 0x461BCD PUSH1 0xE5 SHL DUP2 MSTORE PUSH1 0x20 PUSH1 0x4 DUP3 ADD MSTORE PUSH1 0x14 PUSH1 0x24 DUP3 ADD MSTORE PUSH20 0x149BDD5B99081B9BDD0818DB1BDCD959081E595D PUSH1 0x62 SHL PUSH1 0x44 DUP3 ADD MSTORE PUSH1 0x64 ADD PUSH2 0x52C JUMP JUMPDEST PUSH1 0x7 DUP2 ADD SLOAD PUSH1 0xFF AND ISZERO DUP1 ISZERO PUSH2 0xA4C JUMPI POP PUSH1 0x7 DUP2 ADD SLOAD PUSH2 0x100 SWAP1 DIV PUSH1 0xFF AND ISZERO JUMPDEST PUSH2 0xA8C JUMPI PUSH1 0x40 MLOAD PUSH3 0x461BCD PUSH1 0xE5 SHL DUP2 MSTORE PUSH1 0x20 PUSH1 0x4 DUP3 ADD MSTORE PUSH1 0x11 PUSH1 0x24 DUP3 ADD MSTORE PUSH17 0x105B1C9958591E48199A5B985B1A5E9959 PUSH1 0x7A SHL PUSH1 0x44 DUP3 ADD MSTORE PUSH1 0x64 ADD PUSH2 0x52C JUMP JUMPDEST PUSH1 0x6 DUP2 ADD DUP3 SWAP1 SSTORE PUSH1 0x4 DUP2 ADD SLOAD ISZERO DUP1 PUSH2 0xAA6 JUMPI POP PUSH1 0x5 DUP2 ADD SLOAD ISZERO JUMPDEST ISZERO PUSH2 0xAEC JUMPI PUSH1 0x7 DUP2 ADD DUP1 SLOAD PUSH2 0xFF00 NOT AND PUSH2 0x100 OR SWAP1 SSTORE PUSH1 0x40 MLOAD DUP4 SWAP1 PUSH32 0xBF7AEFF89CF7A4C3D0145879E39AA6A19E8E64ED585090EF86BF31F4D2AE57BF SWAP1 PUSH1 0x0 SWAP1 LOG2 POP POP POP JUMP JUMPDEST PUSH1 0x7 DUP2 ADD DUP1 SLOAD PUSH1 0xFF NOT AND PUSH1 0x1 OR SWAP1 SSTORE PUSH1 0x2 DUP2 ADD SLOAD PUSH1 0x40 DUP1 MLOAD DUP5 DUP2 MSTORE SWAP2 DUP5 GT PUSH1 0x20 DUP4 ADD DUP2 SWAP1 MSTORE SWAP2 DUP6 SWAP2 PUSH32 0xE7FEBAFF6B3A6421D546F752CCE8859A16914B6AA5F750527AD0229D89BFD4CF SWAP2 ADD PUSH1 0x40 MLOAD DUP1 SWAP2 SUB SWAP1 LOG2 POP POP POP POP JUMP JUMPDEST PUSH2 0xB4D PUSH2 0x19E4 JUMP JUMPDEST PUSH2 0xB55 PUSH2 0x1A17 JUMP JUMPDEST PUSH1 0x0 JUMPDEST DUP2 DUP2 LT ISZERO PUSH2 0x7C7 JUMPI PUSH1 0x0 PUSH1 0x3 PUSH1 0x0 DUP6 DUP6 DUP6 DUP2 DUP2 LT PUSH2 0xB78 JUMPI PUSH2 0xB78 PUSH2 0x205A JUMP JUMPDEST SWAP1 POP PUSH1 0x20 MUL ADD PUSH1 0x20 DUP2 ADD SWAP1 PUSH2 0xB8D SWAP2 SWAP1 PUSH2 0x1CBF JUMP JUMPDEST PUSH1 0x1 PUSH1 0x1 PUSH1 0xA0 SHL SUB AND DUP2 MSTORE PUSH1 0x20 DUP2 ADD SWAP2 SWAP1 SWAP2 MSTORE PUSH1 0x40 ADD PUSH1 0x0 KECCAK256 SLOAD SWAP1 POP DUP1 ISZERO PUSH2 0xC51 JUMPI PUSH1 0x0 PUSH1 0x3 PUSH1 0x0 DUP7 DUP7 DUP7 DUP2 DUP2 LT PUSH2 0xBC7 JUMPI PUSH2 0xBC7 PUSH2 0x205A JUMP JUMPDEST SWAP1 POP PUSH1 0x20 MUL ADD PUSH1 0x20 DUP2 ADD SWAP1 PUSH2 0xBDC SWAP2 SWAP1 PUSH2 0x1CBF JUMP JUMPDEST PUSH1 0x1 PUSH1 0x1 PUSH1 0xA0 SHL SUB AND DUP2 MSTORE PUSH1 0x20 DUP2 ADD SWAP2 SWAP1 SWAP2 MSTORE PUSH1 0x40 ADD PUSH1 0x0 KECCAK256 SSTORE PUSH2 0xC51 DUP5 DUP5 DUP5 DUP2 DUP2 LT PUSH2 0xC0B JUMPI PUSH2 0xC0B PUSH2 0x205A JUMP JUMPDEST SWAP1 POP PUSH1 0x20 MUL ADD PUSH1 0x20 DUP2 ADD SWAP1 PUSH2 0xC20 SWAP2 SWAP1 PUSH2 0x1CBF JUMP JUMPDEST PUSH1 0x1 PUSH1 0x1 PUSH1 0xA0 SHL SUB PUSH32 0x0 AND SWAP1 DUP4 PUSH2 0x19AF JUMP JUMPDEST POP DUP1 PUSH2 0xC5C DUP2 PUSH2 0x2070 JUMP JUMPDEST SWAP2 POP POP PUSH2 0xB58 JUMP JUMPDEST PUSH2 0xC6C PUSH2 0x19E4 JUMP JUMPDEST PUSH2 0xC74 PUSH2 0x1A3A JUMP JUMPDEST JUMP JUMPDEST PUSH2 0xC7E PUSH2 0x196F JUMP JUMPDEST PUSH1 0x0 DUP2 DUP2 MSTORE PUSH1 0x4 PUSH1 0x20 MSTORE PUSH1 0x40 SWAP1 KECCAK256 PUSH1 0x7 DUP2 ADD SLOAD PUSH2 0x100 SWAP1 DIV PUSH1 0xFF AND PUSH2 0xCDB JUMPI PUSH1 0x40 MLOAD PUSH3 0x461BCD PUSH1 0xE5 SHL DUP2 MSTORE PUSH1 0x20 PUSH1 0x4 DUP3 ADD MSTORE PUSH1 0x13 PUSH1 0x24 DUP3 ADD MSTORE PUSH19 0x149BDD5B99081B9BDD0818D85B98D95B1B1959 PUSH1 0x6A SHL PUSH1 0x44 DUP3 ADD MSTORE PUSH1 0x64 ADD PUSH2 0x52C JUMP JUMPDEST PUSH1 0x0 DUP3 DUP2 MSTORE PUSH1 0x5 PUSH1 0x20 SWAP1 DUP2 MSTORE PUSH1 0x40 DUP1 DUP4 KECCAK256 CALLER DUP5 MSTORE SWAP1 SWAP2 MSTORE SWAP1 KECCAK256 DUP1 SLOAD PUSH2 0xD2B JUMPI PUSH1 0x40 MLOAD PUSH3 0x461BCD PUSH1 0xE5 SHL DUP2 MSTORE PUSH1 0x20 PUSH1 0x4 DUP3 ADD MSTORE PUSH1 0x6 PUSH1 0x24 DUP3 ADD MSTORE PUSH6 0x139BC818995D PUSH1 0xD2 SHL PUSH1 0x44 DUP3 ADD MSTORE PUSH1 0x64 ADD PUSH2 0x52C JUMP JUMPDEST PUSH1 0x1 DUP2 ADD SLOAD PUSH2 0x100 SWAP1 DIV PUSH1 0xFF AND ISZERO PUSH2 0xD77 JUMPI PUSH1 0x40 MLOAD PUSH3 0x461BCD PUSH1 0xE5 SHL DUP2 MSTORE PUSH1 0x20 PUSH1 0x4 DUP3 ADD MSTORE PUSH1 0xF PUSH1 0x24 DUP3 ADD MSTORE PUSH15 0x105B1C9958591E4818DB185A5B5959 PUSH1 0x8A SHL PUSH1 0x44 DUP3 ADD MSTORE PUSH1 0x64 ADD PUSH2 0x52C JUMP JUMPDEST PUSH1 0x1 DUP2 ADD DUP1 SLOAD PUSH2 0xFF00 NOT AND PUSH2 0x100 OR SWAP1 SSTORE DUP1 SLOAD CALLER PUSH1 0x0 SWAP1 DUP2 MSTORE PUSH1 0x3 PUSH1 0x20 MSTORE PUSH1 0x40 DUP2 KECCAK256 DUP1 SLOAD SWAP1 SWAP2 SWAP1 PUSH2 0xDA9 SWAP1 DUP5 SWAP1 PUSH2 0x200E JUMP JUMPDEST SWAP1 SWAP2 SSTORE POP POP DUP1 SLOAD PUSH1 0x40 MLOAD SWAP1 DUP2 MSTORE CALLER SWAP1 DUP5 SWAP1 PUSH32 0x4EC90E965519D92681267467F775ADA5BD214AA92C0DC93D90A5E880CE9ED026 SWAP1 PUSH1 0x20 ADD PUSH1 0x40 MLOAD DUP1 SWAP2 SUB SWAP1 LOG3 POP POP PUSH2 0x92F PUSH1 0x1 PUSH1 0x0 DUP1 MLOAD PUSH1 0x20 PUSH2 0x224B DUP4 CODECOPY DUP2 MLOAD SWAP2 MSTORE SSTORE JUMP JUMPDEST PUSH1 0x0 DUP4 DUP2 MSTORE PUSH1 0x4 PUSH1 0x20 MSTORE PUSH1 0x40 DUP2 KECCAK256 DUP2 DUP5 PUSH2 0xE29 JUMPI DUP4 DUP3 PUSH1 0x5 ADD SLOAD PUSH2 0xE24 SWAP2 SWAP1 PUSH2 0x200E JUMP JUMPDEST PUSH2 0xE39 JUMP JUMPDEST DUP4 DUP3 PUSH1 0x4 ADD SLOAD PUSH2 0xE39 SWAP2 SWAP1 PUSH2 0x200E JUMP JUMPDEST SWAP1 POP PUSH1 0x0 DUP6 PUSH2 0xE4C JUMPI DUP3 PUSH1 0x4 ADD SLOAD PUSH2 0xE52 JUMP JUMPDEST DUP3 PUSH1 0x5 ADD SLOAD JUMPDEST SWAP1 POP DUP2 ISZERO DUP1 PUSH2 0xE5F JUMPI POP DUP1 ISZERO JUMPDEST ISZERO PUSH2 0xE6F JUMPI DUP5 SWAP4 POP POP POP POP PUSH2 0xEC1 JUMP JUMPDEST PUSH1 0x0 PUSH2 0x2710 PUSH2 0xE80 PUSH2 0x12C DUP3 PUSH2 0x1FFB JUMP JUMPDEST PUSH2 0xE8A SWAP1 DUP5 PUSH2 0x2021 JUMP JUMPDEST PUSH2 0xE94 SWAP2 SWAP1 PUSH2 0x2038 JUMP JUMPDEST SWAP1 POP PUSH1 0x0 DUP4 PUSH2 0xEA3 DUP4 DUP10 PUSH2 0x2021 JUMP JUMPDEST PUSH2 0xEAD SWAP2 SWAP1 PUSH2 0x2038 JUMP JUMPDEST SWAP1 POP PUSH2 0xEB9 DUP2 DUP9 PUSH2 0x200E JUMP JUMPDEST SWAP6 POP POP POP POP POP POP JUMPDEST SWAP4 SWAP3 POP POP POP JUMP JUMPDEST PUSH2 0xED0 PUSH2 0x196F JUMP JUMPDEST PUSH1 0x0 DUP2 DUP2 MSTORE PUSH1 0x4 PUSH1 0x20 MSTORE PUSH1 0x40 SWAP1 KECCAK256 PUSH1 0x7 DUP2 ADD SLOAD PUSH1 0xFF AND PUSH2 0xF26 JUMPI PUSH1 0x40 MLOAD PUSH3 0x461BCD PUSH1 0xE5 SHL DUP2 MSTORE PUSH1 0x20 PUSH1 0x4 DUP3 ADD MSTORE PUSH1 0x11 PUSH1 0x24 DUP3 ADD MSTORE PUSH17 0x149BDD5B99081B9BDD081CD95D1D1B1959 PUSH1 0x7A SHL PUSH1 0x44 DUP3 ADD MSTORE PUSH1 0x64 ADD PUSH2 0x52C JUMP JUMPDEST PUSH1 0x0 DUP3 DUP2 MSTORE PUSH1 0x5 PUSH1 0x20 SWAP1 DUP2 MSTORE PUSH1 0x40 DUP1 DUP4 KECCAK256 CALLER DUP5 MSTORE SWAP1 SWAP2 MSTORE SWAP1 KECCAK256 DUP1 SLOAD PUSH2 0xF76 JUMPI PUSH1 0x40 MLOAD PUSH3 0x461BCD PUSH1 0xE5 SHL DUP2 MSTORE PUSH1 0x20 PUSH1 0x4 DUP3 ADD MSTORE PUSH1 0x6 PUSH1 0x24 DUP3 ADD MSTORE PUSH6 0x139BC818995D PUSH1 0xD2 SHL PUSH1 0x44 DUP3 ADD MSTORE PUSH1 0x64 ADD PUSH2 0x52C JUMP JUMPDEST PUSH1 0x1 DUP2 ADD SLOAD PUSH2 0x100 SWAP1 DIV PUSH1 0xFF AND ISZERO PUSH2 0xFC2 JUMPI PUSH1 0x40 MLOAD PUSH3 0x461BCD PUSH1 0xE5 SHL DUP2 MSTORE PUSH1 0x20 PUSH1 0x4 DUP3 ADD MSTORE PUSH1 0xF PUSH1 0x24 DUP3 ADD MSTORE PUSH15 0x105B1C9958591E4818DB185A5B5959 PUSH1 0x8A SHL PUSH1 0x44 DUP3 ADD MSTORE PUSH1 0x64 ADD PUSH2 0x52C JUMP JUMPDEST PUSH1 0x2 DUP3 ADD SLOAD PUSH1 0x6 DUP4 ADD SLOAD PUSH1 0x1 DUP4 ADD SLOAD SWAP2 LT SWAP1 PUSH1 0xFF AND ISZERO ISZERO DUP2 EQ PUSH2 0x101D JUMPI PUSH1 0x40 MLOAD PUSH3 0x461BCD PUSH1 0xE5 SHL DUP2 MSTORE PUSH1 0x20 PUSH1 0x4 DUP3 ADD MSTORE PUSH1 0x13 PUSH1 0x24 DUP3 ADD MSTORE PUSH19 0x165BDD481B1BDCDD081D1A1A5CC81C9BDD5B99 PUSH1 0x6A SHL PUSH1 0x44 DUP3 ADD MSTORE PUSH1 0x64 ADD PUSH2 0x52C JUMP JUMPDEST PUSH1 0x1 DUP3 ADD DUP1 SLOAD PUSH2 0xFF00 NOT AND PUSH2 0x100 OR SWAP1 SSTORE PUSH1 0x0 DUP2 PUSH2 0x103F JUMPI DUP4 PUSH1 0x5 ADD SLOAD PUSH2 0x1045 JUMP JUMPDEST DUP4 PUSH1 0x4 ADD SLOAD JUMPDEST SWAP1 POP PUSH1 0x0 DUP3 PUSH2 0x1058 JUMPI DUP5 PUSH1 0x4 ADD SLOAD PUSH2 0x105E JUMP JUMPDEST DUP5 PUSH1 0x5 ADD SLOAD JUMPDEST SWAP1 POP PUSH1 0x0 PUSH2 0x2710 PUSH2 0x1071 PUSH2 0x12C DUP3 PUSH2 0x1FFB JUMP JUMPDEST PUSH2 0x107B SWAP1 DUP5 PUSH2 0x2021 JUMP JUMPDEST PUSH2 0x1085 SWAP2 SWAP1 PUSH2 0x2038 JUMP JUMPDEST SWAP1 POP PUSH1 0x0 DUP4 DUP3 DUP8 PUSH1 0x0 ADD SLOAD PUSH2 0x109A SWAP2 SWAP1 PUSH2 0x2021 JUMP JUMPDEST PUSH2 0x10A4 SWAP2 SWAP1 PUSH2 0x2038 JUMP JUMPDEST SWAP1 POP PUSH1 0x0 DUP2 DUP8 PUSH1 0x0 ADD SLOAD PUSH2 0x10B8 SWAP2 SWAP1 PUSH2 0x200E JUMP JUMPDEST CALLER PUSH1 0x0 SWAP1 DUP2 MSTORE PUSH1 0x3 PUSH1 0x20 MSTORE PUSH1 0x40 DUP2 KECCAK256 DUP1 SLOAD SWAP3 SWAP4 POP DUP4 SWAP3 SWAP1 SWAP2 SWAP1 PUSH2 0x10DC SWAP1 DUP5 SWAP1 PUSH2 0x200E JUMP JUMPDEST SWAP1 SWAP2 SSTORE POP POP PUSH1 0x40 MLOAD DUP2 DUP2 MSTORE CALLER SWAP1 DUP11 SWAP1 PUSH32 0x4EC90E965519D92681267467F775ADA5BD214AA92C0DC93D90A5E880CE9ED026 SWAP1 PUSH1 0x20 ADD PUSH1 0x40 MLOAD DUP1 SWAP2 SUB SWAP1 LOG3 POP POP POP POP POP POP POP POP PUSH2 0x92F PUSH1 0x1 PUSH1 0x0 DUP1 MLOAD PUSH1 0x20 PUSH2 0x224B DUP4 CODECOPY DUP2 MLOAD SWAP2 MSTORE SSTORE JUMP JUMPDEST PUSH2 0x113F PUSH2 0x19E4 JUMP JUMPDEST PUSH2 0xC74 PUSH1 0x0 PUSH2 0x1A8C JUMP JUMPDEST PUSH2 0x1151 PUSH2 0x19E4 JUMP JUMPDEST PUSH1 0x1 PUSH1 0x1 PUSH1 0xA0 SHL SUB DUP2 AND PUSH2 0x1198 JUMPI PUSH1 0x40 MLOAD PUSH3 0x461BCD PUSH1 0xE5 SHL DUP2 MSTORE PUSH1 0x20 PUSH1 0x4 DUP3 ADD MSTORE PUSH1 0xE PUSH1 0x24 DUP3 ADD MSTORE PUSH14 0x496E76616C6964206F7261636C65 PUSH1 0x90 SHL PUSH1 0x44 DUP3 ADD MSTORE PUSH1 0x64 ADD PUSH2 0x52C JUMP JUMPDEST PUSH1 0x1 DUP1 SLOAD PUSH1 0x1 PUSH1 0x1 PUSH1 0xA0 SHL SUB NOT AND PUSH1 0x1 PUSH1 0x1 PUSH1 0xA0 SHL SUB DUP4 AND SWAP1 DUP2 OR SWAP1 SWAP2 SSTORE PUSH1 0x40 MLOAD PUSH32 0x3DF77BEB5DB05FCDD70A30FC8ADF3F83F9501B68579455ADBD100B8180940394 SWAP1 PUSH1 0x0 SWAP1 LOG2 POP JUMP JUMPDEST PUSH2 0x11EA PUSH2 0x19E4 JUMP JUMPDEST PUSH2 0xC74 PUSH2 0x1AE5 JUMP JUMPDEST PUSH1 0x4 PUSH1 0x20 MSTORE PUSH1 0x0 SWAP1 DUP2 MSTORE PUSH1 0x40 SWAP1 KECCAK256 DUP1 SLOAD DUP2 SWAP1 PUSH2 0x120D SWAP1 PUSH2 0x2089 JUMP JUMPDEST DUP1 PUSH1 0x1F ADD PUSH1 0x20 DUP1 SWAP2 DIV MUL PUSH1 0x20 ADD PUSH1 0x40 MLOAD SWAP1 DUP2 ADD PUSH1 0x40 MSTORE DUP1 SWAP3 SWAP2 SWAP1 DUP2 DUP2 MSTORE PUSH1 0x20 ADD DUP3 DUP1 SLOAD PUSH2 0x1239 SWAP1 PUSH2 0x2089 JUMP JUMPDEST DUP1 ISZERO PUSH2 0x1286 JUMPI DUP1 PUSH1 0x1F LT PUSH2 0x125B JUMPI PUSH2 0x100 DUP1 DUP4 SLOAD DIV MUL DUP4 MSTORE SWAP2 PUSH1 0x20 ADD SWAP2 PUSH2 0x1286 JUMP JUMPDEST DUP3 ADD SWAP2 SWAP1 PUSH1 0x0 MSTORE PUSH1 0x20 PUSH1 0x0 KECCAK256 SWAP1 JUMPDEST DUP2 SLOAD DUP2 MSTORE SWAP1 PUSH1 0x1 ADD SWAP1 PUSH1 0x20 ADD DUP1 DUP4 GT PUSH2 0x1269 JUMPI DUP3 SWAP1 SUB PUSH1 0x1F AND DUP3 ADD SWAP2 JUMPDEST POP POP POP POP POP SWAP1 DUP1 PUSH1 0x1 ADD DUP1 SLOAD PUSH2 0x129B SWAP1 PUSH2 0x2089 JUMP JUMPDEST DUP1 PUSH1 0x1F ADD PUSH1 0x20 DUP1 SWAP2 DIV MUL PUSH1 0x20 ADD PUSH1 0x40 MLOAD SWAP1 DUP2 ADD PUSH1 0x40 MSTORE DUP1 SWAP3 SWAP2 SWAP1 DUP2 DUP2 MSTORE PUSH1 0x20 ADD DUP3 DUP1 SLOAD PUSH2 0x12C7 SWAP1 PUSH2 0x2089 JUMP JUMPDEST DUP1 ISZERO PUSH2 0x1314 JUMPI DUP1 PUSH1 0x1F LT PUSH2 0x12E9 JUMPI PUSH2 0x100 DUP1 DUP4 SLOAD DIV MUL DUP4 MSTORE SWAP2 PUSH1 0x20 ADD SWAP2 PUSH2 0x1314 JUMP JUMPDEST DUP3 ADD SWAP2 SWAP1 PUSH1 0x0 MSTORE PUSH1 0x20 PUSH1 0x0 KECCAK256 SWAP1 JUMPDEST DUP2 SLOAD DUP2 MSTORE SWAP1 PUSH1 0x1 ADD SWAP1 PUSH1 0x20 ADD DUP1 DUP4 GT PUSH2 0x12F7 JUMPI DUP3 SWAP1 SUB PUSH1 0x1F AND DUP3 ADD SWAP2 JUMPDEST POP POP POP PUSH1 0x2 DUP5 ADD SLOAD PUSH1 0x3 DUP6 ADD SLOAD PUSH1 0x4 DUP7 ADD SLOAD PUSH1 0x5 DUP8 ADD SLOAD PUSH1 0x6 DUP9 ADD SLOAD PUSH1 0x7 SWAP1 SWAP9 ADD SLOAD SWAP7 SWAP8 SWAP4 SWAP7 SWAP3 SWAP6 POP SWAP1 SWAP4 POP SWAP2 SWAP1 PUSH1 0xFF DUP1 DUP3 AND SWAP2 PUSH2 0x100 SWAP1 DIV AND DUP10 JUMP JUMPDEST PUSH2 0x13A4 PUSH1 0x40 MLOAD DUP1 PUSH2 0x120 ADD PUSH1 0x40 MSTORE DUP1 PUSH1 0x60 DUP2 MSTORE PUSH1 0x20 ADD PUSH1 0x60 DUP2 MSTORE PUSH1 0x20 ADD PUSH1 0x0 DUP2 MSTORE PUSH1 0x20 ADD PUSH1 0x0 DUP2 MSTORE PUSH1 0x20 ADD PUSH1 0x0 DUP2 MSTORE PUSH1 0x20 ADD PUSH1 0x0 DUP2 MSTORE PUSH1 0x20 ADD PUSH1 0x0 DUP2 MSTORE PUSH1 0x20 ADD PUSH1 0x0 ISZERO ISZERO DUP2 MSTORE PUSH1 0x20 ADD PUSH1 0x0 ISZERO ISZERO DUP2 MSTORE POP SWAP1 JUMP JUMPDEST PUSH1 0x0 DUP3 DUP2 MSTORE PUSH1 0x4 PUSH1 0x20 MSTORE PUSH1 0x40 SWAP1 DUP2 SWAP1 KECCAK256 DUP2 MLOAD PUSH2 0x120 DUP2 ADD SWAP1 SWAP3 MSTORE DUP1 SLOAD DUP3 SWAP1 DUP3 SWAP1 PUSH2 0x13CD SWAP1 PUSH2 0x2089 JUMP JUMPDEST DUP1 PUSH1 0x1F ADD PUSH1 0x20 DUP1 SWAP2 DIV MUL PUSH1 0x20 ADD PUSH1 0x40 MLOAD SWAP1 DUP2 ADD PUSH1 0x40 MSTORE DUP1 SWAP3 SWAP2 SWAP1 DUP2 DUP2 MSTORE PUSH1 0x20 ADD DUP3 DUP1 SLOAD PUSH2 0x13F9 SWAP1 PUSH2 0x2089 JUMP JUMPDEST DUP1 ISZERO PUSH2 0x1446 JUMPI DUP1 PUSH1 0x1F LT PUSH2 0x141B JUMPI PUSH2 0x100 DUP1 DUP4 SLOAD DIV MUL DUP4 MSTORE SWAP2 PUSH1 0x20 ADD SWAP2 PUSH2 0x1446 JUMP JUMPDEST DUP3 ADD SWAP2 SWAP1 PUSH1 0x0 MSTORE PUSH1 0x20 PUSH1 0x0 KECCAK256 SWAP1 JUMPDEST DUP2 SLOAD DUP2 MSTORE SWAP1 PUSH1 0x1 ADD SWAP1 PUSH1 0x20 ADD DUP1 DUP4 GT PUSH2 0x1429 JUMPI DUP3 SWAP1 SUB PUSH1 0x1F AND DUP3 ADD SWAP2 JUMPDEST POP POP POP POP POP DUP2 MSTORE PUSH1 0x20 ADD PUSH1 0x1 DUP3 ADD DUP1 SLOAD PUSH2 0x145F SWAP1 PUSH2 0x2089 JUMP JUMPDEST DUP1 PUSH1 0x1F ADD PUSH1 0x20 DUP1 SWAP2 DIV MUL PUSH1 0x20 ADD PUSH1 0x40 MLOAD SWAP1 DUP2 ADD PUSH1 0x40 MSTORE DUP1 SWAP3 SWAP2 SWAP1 DUP2 DUP2 MSTORE PUSH1 0x20 ADD DUP3 DUP1 SLOAD PUSH2 0x148B SWAP1 PUSH2 0x2089 JUMP JUMPDEST DUP1 ISZERO PUSH2 0x14D8 JUMPI DUP1 PUSH1 0x1F LT PUSH2 0x14AD JUMPI PUSH2 0x100 DUP1 DUP4 SLOAD DIV MUL DUP4 MSTORE SWAP2 PUSH1 0x20 ADD SWAP2 PUSH2 0x14D8 JUMP JUMPDEST DUP3 ADD SWAP2 SWAP1 PUSH1 0x0 MSTORE PUSH1 0x20 PUSH1 0x0 KECCAK256 SWAP1 JUMPDEST DUP2 SLOAD DUP2 MSTORE SWAP1 PUSH1 0x1 ADD SWAP1 PUSH1 0x20 ADD DUP1 DUP4 GT PUSH2 0x14BB JUMPI DUP3 SWAP1 SUB PUSH1 0x1F AND DUP3 ADD SWAP2 JUMPDEST POP POP POP SWAP2 DUP4 MSTORE POP POP PUSH1 0x2 DUP3 ADD SLOAD PUSH1 0x20 DUP3 ADD MSTORE PUSH1 0x3 DUP3 ADD SLOAD PUSH1 0x40 DUP3 ADD MSTORE PUSH1 0x4 DUP3 ADD SLOAD PUSH1 0x60 DUP3 ADD MSTORE PUSH1 0x5 DUP3 ADD SLOAD PUSH1 0x80 DUP3 ADD MSTORE PUSH1 0x6 DUP3 ADD SLOAD PUSH1 0xA0 DUP3 ADD MSTORE PUSH1 0x7 SWAP1 SWAP2 ADD SLOAD PUSH1 0xFF DUP1 DUP3 AND ISZERO ISZERO PUSH1 0xC0 DUP5 ADD MSTORE PUSH2 0x100 SWAP1 SWAP2 DIV AND ISZERO ISZERO PUSH1 0xE0 SWAP1 SWAP2 ADD MSTORE SWAP3 SWAP2 POP POP JUMP JUMPDEST PUSH2 0x1541 PUSH2 0x19E4 JUMP JUMPDEST PUSH1 0x0 SLOAD PUSH2 0x92F SWAP1 PUSH2 0x100 SWAP1 DIV PUSH1 0x1 PUSH1 0x1 PUSH1 0xA0 SHL SUB AND PUSH2 0xC20 JUMP JUMPDEST PUSH2 0x1563 PUSH2 0x19E4 JUMP JUMPDEST PUSH2 0x1F4 DUP2 GT ISZERO PUSH2 0x159E JUMPI PUSH1 0x40 MLOAD PUSH3 0x461BCD PUSH1 0xE5 SHL DUP2 MSTORE PUSH1 0x20 PUSH1 0x4 DUP3 ADD MSTORE PUSH1 0x6 PUSH1 0x24 DUP3 ADD MSTORE PUSH6 0x4D6178203525 PUSH1 0xD0 SHL PUSH1 0x44 DUP3 ADD MSTORE PUSH1 0x64 ADD PUSH2 0x52C JUMP JUMPDEST PUSH1 0x2 SSTORE JUMP JUMPDEST PUSH2 0x15AB PUSH2 0x196F JUMP JUMPDEST PUSH2 0x15B3 PUSH2 0x198B JUMP JUMPDEST PUSH1 0x0 DUP2 GT PUSH2 0x15D3 JUMPI PUSH1 0x40 MLOAD PUSH3 0x461BCD PUSH1 0xE5 SHL DUP2 MSTORE PUSH1 0x4 ADD PUSH2 0x52C SWAP1 PUSH2 0x1FC0 JUMP JUMPDEST CALLER PUSH1 0x0 SWAP1 DUP2 MSTORE PUSH1 0x3 PUSH1 0x20 MSTORE PUSH1 0x40 DUP2 KECCAK256 DUP1 SLOAD DUP4 SWAP3 SWAP1 PUSH2 0x15F2 SWAP1 DUP5 SWAP1 PUSH2 0x200E JUMP JUMPDEST SWAP1 SWAP2 SSTORE POP PUSH2 0x162D SWAP1 POP PUSH1 0x1 PUSH1 0x1 PUSH1 0xA0 SHL SUB PUSH32 0x0 AND CALLER ADDRESS DUP5 PUSH2 0x1B22 JUMP JUMPDEST PUSH1 0x40 MLOAD DUP2 DUP2 MSTORE CALLER SWAP1 PUSH32 0x2DA466A7B24304F47E87FA2E1E5A81B9831CE54FEC19055CE277CA2F39BA42C4 SWAP1 PUSH1 0x20 ADD PUSH1 0x40 MLOAD DUP1 SWAP2 SUB SWAP1 LOG2 PUSH2 0x92F PUSH1 0x1 PUSH1 0x0 DUP1 MLOAD PUSH1 0x20 PUSH2 0x224B DUP4 CODECOPY DUP2 MLOAD SWAP2 MSTORE SSTORE JUMP JUMPDEST PUSH1 0x40 DUP1 MLOAD PUSH1 0x60 DUP1 DUP3 ADD DUP4 MSTORE PUSH1 0x0 DUP1 DUP4 MSTORE PUSH1 0x20 DUP1 DUP5 ADD DUP3 SWAP1 MSTORE SWAP3 DUP5 ADD DUP2 SWAP1 MSTORE DUP6 DUP2 MSTORE PUSH1 0x5 DUP4 MSTORE DUP4 DUP2 KECCAK256 PUSH1 0x1 PUSH1 0x1 PUSH1 0xA0 SHL SUB DUP7 AND DUP3 MSTORE DUP4 MSTORE DUP4 SWAP1 KECCAK256 DUP4 MLOAD SWAP2 DUP3 ADD DUP5 MSTORE DUP1 SLOAD DUP3 MSTORE PUSH1 0x1 ADD SLOAD PUSH1 0xFF DUP1 DUP3 AND ISZERO ISZERO SWAP4 DUP4 ADD SWAP4 SWAP1 SWAP4 MSTORE PUSH2 0x100 SWAP1 DIV SWAP1 SWAP2 AND ISZERO ISZERO SWAP2 DUP2 ADD SWAP2 SWAP1 SWAP2 MSTORE JUMPDEST SWAP3 SWAP2 POP POP JUMP JUMPDEST PUSH1 0x1 SLOAD PUSH1 0x0 SWAP1 PUSH1 0x1 PUSH1 0x1 PUSH1 0xA0 SHL SUB AND CALLER EQ PUSH2 0x1744 JUMPI PUSH1 0x40 MLOAD PUSH3 0x461BCD PUSH1 0xE5 SHL DUP2 MSTORE PUSH1 0x20 PUSH1 0x4 DUP3 ADD DUP2 SWAP1 MSTORE PUSH1 0x24 DUP3 ADD MSTORE PUSH32 0x4368617274436C6173683A2063616C6C6572206973206E6F74206F7261636C65 PUSH1 0x44 DUP3 ADD MSTORE PUSH1 0x64 ADD PUSH2 0x52C JUMP JUMPDEST TIMESTAMP DUP3 GT PUSH2 0x1793 JUMPI PUSH1 0x40 MLOAD PUSH3 0x461BCD PUSH1 0xE5 SHL DUP2 MSTORE PUSH1 0x20 PUSH1 0x4 DUP3 ADD MSTORE PUSH1 0x1C PUSH1 0x24 DUP3 ADD MSTORE PUSH32 0x436C6F73652074696D65206D75737420626520696E2066757475726500000000 PUSH1 0x44 DUP3 ADD MSTORE PUSH1 0x64 ADD PUSH2 0x52C JUMP JUMPDEST PUSH1 0x6 DUP1 SLOAD SWAP1 PUSH1 0x0 PUSH2 0x17A3 DUP4 PUSH2 0x2070 JUMP JUMPDEST SWAP1 SWAP2 SSTORE POP PUSH1 0x40 DUP1 MLOAD PUSH2 0x140 PUSH1 0x20 PUSH1 0x1F DUP12 ADD DUP2 SWAP1 DIV MUL DUP3 ADD DUP2 ADD SWAP1 SWAP3 MSTORE PUSH2 0x120 DUP2 ADD DUP10 DUP2 MSTORE SWAP3 SWAP4 POP SWAP2 DUP3 SWAP2 DUP11 SWAP1 DUP11 SWAP1 DUP2 SWAP1 DUP6 ADD DUP4 DUP3 DUP1 DUP3 DUP5 CALLDATACOPY PUSH1 0x0 SWAP3 ADD SWAP2 SWAP1 SWAP2 MSTORE POP POP POP SWAP1 DUP3 MSTORE POP PUSH1 0x40 DUP1 MLOAD PUSH1 0x20 PUSH1 0x1F DUP10 ADD DUP2 SWAP1 DIV DUP2 MUL DUP3 ADD DUP2 ADD SWAP1 SWAP3 MSTORE DUP8 DUP2 MSTORE SWAP2 DUP2 ADD SWAP2 SWAP1 DUP9 SWAP1 DUP9 SWAP1 DUP2 SWAP1 DUP5 ADD DUP4 DUP3 DUP1 DUP3 DUP5 CALLDATACOPY PUSH1 0x0 SWAP3 ADD DUP3 SWAP1 MSTORE POP SWAP4 DUP6 MSTORE POP POP POP PUSH1 0x20 DUP1 DUP4 ADD DUP8 SWAP1 MSTORE PUSH1 0x40 DUP1 DUP5 ADD DUP8 SWAP1 MSTORE PUSH1 0x60 DUP5 ADD DUP4 SWAP1 MSTORE PUSH1 0x80 DUP5 ADD DUP4 SWAP1 MSTORE PUSH1 0xA0 DUP5 ADD DUP4 SWAP1 MSTORE PUSH1 0xC0 DUP5 ADD DUP4 SWAP1 MSTORE PUSH1 0xE0 SWAP1 SWAP4 ADD DUP3 SWAP1 MSTORE DUP5 DUP3 MSTORE PUSH1 0x4 SWAP1 MSTORE KECCAK256 DUP2 MLOAD DUP2 SWAP1 PUSH2 0x186E SWAP1 DUP3 PUSH2 0x2127 JUMP JUMPDEST POP PUSH1 0x20 DUP3 ADD MLOAD PUSH1 0x1 DUP3 ADD SWAP1 PUSH2 0x1883 SWAP1 DUP3 PUSH2 0x2127 JUMP JUMPDEST POP PUSH1 0x40 DUP3 DUP2 ADD MLOAD PUSH1 0x2 DUP4 ADD SSTORE PUSH1 0x60 DUP4 ADD MLOAD PUSH1 0x3 DUP4 ADD SSTORE PUSH1 0x80 DUP4 ADD MLOAD PUSH1 0x4 DUP4 ADD SSTORE PUSH1 0xA0 DUP4 ADD MLOAD PUSH1 0x5 DUP4 ADD SSTORE PUSH1 0xC0 DUP4 ADD MLOAD PUSH1 0x6 DUP4 ADD SSTORE PUSH1 0xE0 DUP4 ADD MLOAD PUSH1 0x7 SWAP1 SWAP3 ADD DUP1 SLOAD PUSH2 0x100 SWAP5 DUP6 ADD MLOAD PUSH2 0xFFFF NOT SWAP1 SWAP2 AND SWAP4 ISZERO ISZERO PUSH2 0xFF00 NOT AND SWAP4 SWAP1 SWAP4 OR SWAP3 ISZERO ISZERO SWAP1 SWAP4 MUL SWAP2 SWAP1 SWAP2 OR SWAP1 SWAP2 SSTORE MLOAD DUP2 SWAP1 PUSH32 0xCA4E7B7F1CED7B96471EB33C82C804EAA9A2C15AE22D72963F27CAD2D3BCB4AD SWAP1 PUSH2 0x1922 SWAP1 DUP11 SWAP1 DUP11 SWAP1 DUP11 SWAP1 DUP11 SWAP1 DUP10 SWAP1 PUSH2 0x2210 JUMP JUMPDEST PUSH1 0x40 MLOAD DUP1 SWAP2 SUB SWAP1 LOG2 SWAP7 SWAP6 POP POP POP POP POP POP JUMP JUMPDEST PUSH2 0x193C PUSH2 0x19E4 JUMP JUMPDEST PUSH1 0x1 PUSH1 0x1 PUSH1 0xA0 SHL SUB DUP2 AND PUSH2 0x1966 JUMPI PUSH1 0x40 MLOAD PUSH4 0x1E4FBDF7 PUSH1 0xE0 SHL DUP2 MSTORE PUSH1 0x0 PUSH1 0x4 DUP3 ADD MSTORE PUSH1 0x24 ADD PUSH2 0x52C JUMP JUMPDEST PUSH2 0x92F DUP2 PUSH2 0x1A8C JUMP JUMPDEST PUSH2 0x1977 PUSH2 0x1B5E JUMP JUMPDEST PUSH1 0x2 PUSH1 0x0 DUP1 MLOAD PUSH1 0x20 PUSH2 0x224B DUP4 CODECOPY DUP2 MLOAD SWAP2 MSTORE SSTORE JUMP JUMPDEST PUSH1 0x0 SLOAD PUSH1 0xFF AND ISZERO PUSH2 0xC74 JUMPI PUSH1 0x40 MLOAD PUSH4 0xD93C0665 PUSH1 0xE0 SHL DUP2 MSTORE PUSH1 0x4 ADD PUSH1 0x40 MLOAD DUP1 SWAP2 SUB SWAP1 REVERT JUMPDEST PUSH2 0x19BC DUP4 DUP4 DUP4 PUSH1 0x1 PUSH2 0x1B8E JUMP JUMPDEST PUSH2 0x7C7 JUMPI PUSH1 0x40 MLOAD PUSH4 0x5274AFE7 PUSH1 0xE0 SHL DUP2 MSTORE PUSH1 0x1 PUSH1 0x1 PUSH1 0xA0 SHL SUB DUP5 AND PUSH1 0x4 DUP3 ADD MSTORE PUSH1 0x24 ADD PUSH2 0x52C JUMP JUMPDEST PUSH1 0x0 SLOAD PUSH1 0x1 PUSH1 0x1 PUSH1 0xA0 SHL SUB PUSH2 0x100 SWAP1 SWAP2 DIV AND CALLER EQ PUSH2 0xC74 JUMPI PUSH1 0x40 MLOAD PUSH4 0x118CDAA7 PUSH1 0xE0 SHL DUP2 MSTORE CALLER PUSH1 0x4 DUP3 ADD MSTORE PUSH1 0x24 ADD PUSH2 0x52C JUMP JUMPDEST PUSH1 0x0 SLOAD PUSH1 0xFF AND PUSH2 0xC74 JUMPI PUSH1 0x40 MLOAD PUSH4 0x8DFC202B PUSH1 0xE0 SHL DUP2 MSTORE PUSH1 0x4 ADD PUSH1 0x40 MLOAD DUP1 SWAP2 SUB SWAP1 REVERT JUMPDEST PUSH2 0x1A42 PUSH2 0x1A17 JUMP JUMPDEST PUSH1 0x0 DUP1 SLOAD PUSH1 0xFF NOT AND SWAP1 SSTORE PUSH32 0x5DB9EE0A495BF2E6FF9C91A7834C1BA4FDD244A5E8AA4E537BD38AEAE4B073AA CALLER JUMPDEST PUSH1 0x40 MLOAD PUSH1 0x1 PUSH1 0x1 PUSH1 0xA0 SHL SUB SWAP1 SWAP2 AND DUP2 MSTORE PUSH1 0x20 ADD PUSH1 0x40 MLOAD DUP1 SWAP2 SUB SWAP1 LOG1 JUMP JUMPDEST PUSH1 0x0 DUP1 SLOAD PUSH1 0x1 PUSH1 0x1 PUSH1 0xA0 SHL SUB DUP4 DUP2 AND PUSH2 0x100 DUP2 DUP2 MUL PUSH2 0x100 PUSH1 0x1 PUSH1 0xA8 SHL SUB NOT DUP6 AND OR DUP6 SSTORE PUSH1 0x40 MLOAD SWAP4 DIV SWAP2 SWAP1 SWAP2 AND SWAP3 SWAP1 SWAP2 DUP4 SWAP2 PUSH32 0x8BE0079C531659141344CD1FD0A4F28419497F9722A3DAAFE3B4186F6B6457E0 SWAP2 LOG3 POP POP JUMP JUMPDEST PUSH2 0x1AED PUSH2 0x198B JUMP JUMPDEST PUSH1 0x0 DUP1 SLOAD PUSH1 0xFF NOT AND PUSH1 0x1 OR SWAP1 SSTORE PUSH32 0x62E78CEA01BEE320CD4E420270B5EA74000D11B0C9F74754EBDBFC544B05A258 PUSH2 0x1A6F CALLER SWAP1 JUMP JUMPDEST PUSH2 0x1B30 DUP5 DUP5 DUP5 DUP5 PUSH1 0x1 PUSH2 0x1BF4 JUMP JUMPDEST PUSH2 0x1B58 JUMPI PUSH1 0x40 MLOAD PUSH4 0x5274AFE7 PUSH1 0xE0 SHL DUP2 MSTORE PUSH1 0x1 PUSH1 0x1 PUSH1 0xA0 SHL SUB DUP6 AND PUSH1 0x4 DUP3 ADD MSTORE PUSH1 0x24 ADD PUSH2 0x52C JUMP JUMPDEST POP POP POP POP JUMP JUMPDEST PUSH1 0x0 DUP1 MLOAD PUSH1 0x20 PUSH2 0x224B DUP4 CODECOPY DUP2 MLOAD SWAP2 MSTORE SLOAD PUSH1 0x2 SUB PUSH2 0xC74 JUMPI PUSH1 0x40 MLOAD PUSH4 0x3EE5AEB5 PUSH1 0xE0 SHL DUP2 MSTORE PUSH1 0x4 ADD PUSH1 0x40 MLOAD DUP1 SWAP2 SUB SWAP1 REVERT JUMPDEST PUSH1 0x40 MLOAD PUSH4 0xA9059CBB PUSH1 0xE0 SHL PUSH1 0x0 DUP2 DUP2 MSTORE PUSH1 0x1 PUSH1 0x1 PUSH1 0xA0 SHL SUB DUP7 AND PUSH1 0x4 MSTORE PUSH1 0x24 DUP6 SWAP1 MSTORE SWAP2 PUSH1 0x20 DUP4 PUSH1 0x44 DUP2 DUP1 DUP12 GAS CALL SWAP3 POP PUSH1 0x1 PUSH1 0x0 MLOAD EQ DUP4 AND PUSH2 0x1BE8 JUMPI DUP4 DUP4 ISZERO AND ISZERO PUSH2 0x1BDB JUMPI RETURNDATASIZE PUSH1 0x0 DUP3 RETURNDATACOPY RETURNDATASIZE DUP2 REVERT JUMPDEST PUSH1 0x0 DUP8 EXTCODESIZE GT RETURNDATASIZE ISZERO AND DUP4 AND SWAP3 POP JUMPDEST PUSH1 0x40 MSTORE POP SWAP5 SWAP4 POP POP POP POP JUMP JUMPDEST PUSH1 0x40 MLOAD PUSH4 0x23B872DD PUSH1 0xE0 SHL PUSH1 0x0 DUP2 DUP2 MSTORE PUSH1 0x1 PUSH1 0x1 PUSH1 0xA0 SHL SUB DUP8 DUP2 AND PUSH1 0x4 MSTORE DUP7 AND PUSH1 0x24 MSTORE PUSH1 0x44 DUP6 SWAP1 MSTORE SWAP2 PUSH1 0x20 DUP4 PUSH1 0x64 DUP2 DUP1 DUP13 GAS CALL SWAP3 POP PUSH1 0x1 PUSH1 0x0 MLOAD EQ DUP4 AND PUSH2 0x1C54 JUMPI DUP4 DUP4 ISZERO AND ISZERO PUSH2 0x1C47 JUMPI RETURNDATASIZE PUSH1 0x0 DUP3 RETURNDATACOPY RETURNDATASIZE DUP2 REVERT JUMPDEST PUSH1 0x0 DUP9 EXTCODESIZE GT RETURNDATASIZE ISZERO AND DUP4 AND SWAP3 POP JUMPDEST PUSH1 0x40 MSTORE POP PUSH1 0x0 PUSH1 0x60 MSTORE SWAP6 SWAP5 POP POP POP POP POP JUMP JUMPDEST PUSH1 0x0 DUP1 PUSH1 0x0 PUSH1 0x60 DUP5 DUP7 SUB SLT ISZERO PUSH2 0x1C7B JUMPI PUSH1 0x0 DUP1 REVERT JUMPDEST DUP4 CALLDATALOAD SWAP3 POP PUSH1 0x20 DUP5 ADD CALLDATALOAD DUP1 ISZERO ISZERO DUP2 EQ PUSH2 0x1C92 JUMPI PUSH1 0x0 DUP1 REVERT JUMPDEST SWAP3 SWAP6 SWAP3 SWAP5 POP POP POP PUSH1 0x40 SWAP2 SWAP1 SWAP2 ADD CALLDATALOAD SWAP1 JUMP JUMPDEST DUP1 CALLDATALOAD PUSH1 0x1 PUSH1 0x1 PUSH1 0xA0 SHL SUB DUP2 AND DUP2 EQ PUSH2 0x1CBA JUMPI PUSH1 0x0 DUP1 REVERT JUMPDEST SWAP2 SWAP1 POP JUMP JUMPDEST PUSH1 0x0 PUSH1 0x20 DUP3 DUP5 SUB SLT ISZERO PUSH2 0x1CD1 JUMPI PUSH1 0x0 DUP1 REVERT JUMPDEST PUSH2 0xEC1 DUP3 PUSH2 0x1CA3 JUMP JUMPDEST PUSH1 0x0 PUSH1 0x20 DUP3 DUP5 SUB SLT ISZERO PUSH2 0x1CEC JUMPI PUSH1 0x0 DUP1 REVERT JUMPDEST POP CALLDATALOAD SWAP2 SWAP1 POP JUMP JUMPDEST PUSH1 0x0 DUP1 PUSH1 0x40 DUP4 DUP6 SUB SLT ISZERO PUSH2 0x1D06 JUMPI PUSH1 0x0 DUP1 REVERT JUMPDEST POP POP DUP1 CALLDATALOAD SWAP3 PUSH1 0x20 SWAP1 SWAP2 ADD CALLDATALOAD SWAP2 POP JUMP JUMPDEST PUSH1 0x0 DUP1 PUSH1 0x20 DUP4 DUP6 SUB SLT ISZERO PUSH2 0x1D28 JUMPI PUSH1 0x0 DUP1 REVERT JUMPDEST DUP3 CALLDATALOAD PUSH8 0xFFFFFFFFFFFFFFFF DUP1 DUP3 GT ISZERO PUSH2 0x1D40 JUMPI PUSH1 0x0 DUP1 REVERT JUMPDEST DUP2 DUP6 ADD SWAP2 POP DUP6 PUSH1 0x1F DUP4 ADD SLT PUSH2 0x1D54 JUMPI PUSH1 0x0 DUP1 REVERT JUMPDEST DUP2 CALLDATALOAD DUP2 DUP2 GT ISZERO PUSH2 0x1D63 JUMPI PUSH1 0x0 DUP1 REVERT JUMPDEST DUP7 PUSH1 0x20 DUP3 PUSH1 0x5 SHL DUP6 ADD ADD GT ISZERO PUSH2 0x1D78 JUMPI PUSH1 0x0 DUP1 REVERT JUMPDEST PUSH1 0x20 SWAP3 SWAP1 SWAP3 ADD SWAP7 SWAP2 SWAP6 POP SWAP1 SWAP4 POP POP POP POP JUMP JUMPDEST PUSH1 0x0 DUP2 MLOAD DUP1 DUP5 MSTORE PUSH1 0x0 JUMPDEST DUP2 DUP2 LT ISZERO PUSH2 0x1DB0 JUMPI PUSH1 0x20 DUP2 DUP6 ADD DUP2 ADD MLOAD DUP7 DUP4 ADD DUP3 ADD MSTORE ADD PUSH2 0x1D94 JUMP JUMPDEST POP PUSH1 0x0 PUSH1 0x20 DUP3 DUP7 ADD ADD MSTORE PUSH1 0x20 PUSH1 0x1F NOT PUSH1 0x1F DUP4 ADD AND DUP6 ADD ADD SWAP2 POP POP SWAP3 SWAP2 POP POP JUMP JUMPDEST PUSH1 0x0 PUSH2 0x120 DUP1 DUP4 MSTORE PUSH2 0x1DE4 DUP2 DUP5 ADD DUP14 PUSH2 0x1D8A JUMP JUMPDEST SWAP1 POP DUP3 DUP2 SUB PUSH1 0x20 DUP5 ADD MSTORE PUSH2 0x1DF8 DUP2 DUP13 PUSH2 0x1D8A JUMP JUMPDEST PUSH1 0x40 DUP5 ADD SWAP11 SWAP1 SWAP11 MSTORE POP POP PUSH1 0x60 DUP2 ADD SWAP7 SWAP1 SWAP7 MSTORE PUSH1 0x80 DUP7 ADD SWAP5 SWAP1 SWAP5 MSTORE PUSH1 0xA0 DUP6 ADD SWAP3 SWAP1 SWAP3 MSTORE PUSH1 0xC0 DUP5 ADD MSTORE ISZERO ISZERO PUSH1 0xE0 DUP4 ADD MSTORE ISZERO ISZERO PUSH2 0x100 SWAP1 SWAP2 ADD MSTORE SWAP3 SWAP2 POP POP JUMP JUMPDEST PUSH1 0x20 DUP2 MSTORE PUSH1 0x0 DUP3 MLOAD PUSH2 0x120 DUP1 PUSH1 0x20 DUP6 ADD MSTORE PUSH2 0x1E54 PUSH2 0x140 DUP6 ADD DUP4 PUSH2 0x1D8A JUMP JUMPDEST SWAP2 POP PUSH1 0x20 DUP6 ADD MLOAD PUSH1 0x1F NOT DUP6 DUP5 SUB ADD PUSH1 0x40 DUP7 ADD MSTORE PUSH2 0x1E71 DUP4 DUP3 PUSH2 0x1D8A JUMP JUMPDEST SWAP3 POP POP PUSH1 0x40 DUP6 ADD MLOAD PUSH1 0x60 DUP6 ADD MSTORE PUSH1 0x60 DUP6 ADD MLOAD PUSH1 0x80 DUP6 ADD MSTORE PUSH1 0x80 DUP6 ADD MLOAD PUSH1 0xA0 DUP6 ADD MSTORE PUSH1 0xA0 DUP6 ADD MLOAD PUSH1 0xC0 DUP6 ADD MSTORE PUSH1 0xC0 DUP6 ADD MLOAD PUSH1 0xE0 DUP6 ADD MSTORE PUSH1 0xE0 DUP6 ADD MLOAD PUSH2 0x100 PUSH2 0x1EBB DUP2 DUP8 ADD DUP4 ISZERO ISZERO SWAP1 MSTORE JUMP JUMPDEST SWAP1 SWAP6 ADD MLOAD ISZERO ISZERO SWAP4 ADD SWAP3 SWAP1 SWAP3 MSTORE POP SWAP2 SWAP1 POP JUMP JUMPDEST PUSH1 0x0 DUP1 PUSH1 0x40 DUP4 DUP6 SUB SLT ISZERO PUSH2 0x1EE0 JUMPI PUSH1 0x0 DUP1 REVERT JUMPDEST DUP3 CALLDATALOAD SWAP2 POP PUSH2 0x1EF0 PUSH1 0x20 DUP5 ADD PUSH2 0x1CA3 JUMP JUMPDEST SWAP1 POP SWAP3 POP SWAP3 SWAP1 POP JUMP JUMPDEST PUSH1 0x0 DUP1 DUP4 PUSH1 0x1F DUP5 ADD SLT PUSH2 0x1F0B JUMPI PUSH1 0x0 DUP1 REVERT JUMPDEST POP DUP2 CALLDATALOAD PUSH8 0xFFFFFFFFFFFFFFFF DUP2 GT ISZERO PUSH2 0x1F23 JUMPI PUSH1 0x0 DUP1 REVERT JUMPDEST PUSH1 0x20 DUP4 ADD SWAP2 POP DUP4 PUSH1 0x20 DUP3 DUP6 ADD ADD GT ISZERO PUSH2 0x1F3B JUMPI PUSH1 0x0 DUP1 REVERT JUMPDEST SWAP3 POP SWAP3 SWAP1 POP JUMP JUMPDEST PUSH1 0x0 DUP1 PUSH1 0x0 DUP1 PUSH1 0x0 DUP1 PUSH1 0x80 DUP8 DUP10 SUB SLT ISZERO PUSH2 0x1F5B JUMPI PUSH1 0x0 DUP1 REVERT JUMPDEST DUP7 CALLDATALOAD PUSH8 0xFFFFFFFFFFFFFFFF DUP1 DUP3 GT ISZERO PUSH2 0x1F73 JUMPI PUSH1 0x0 DUP1 REVERT JUMPDEST PUSH2 0x1F7F DUP11 DUP4 DUP12 ADD PUSH2 0x1EF9 JUMP JUMPDEST SWAP1 SWAP9 POP SWAP7 POP PUSH1 0x20 DUP10 ADD CALLDATALOAD SWAP2 POP DUP1 DUP3 GT ISZERO PUSH2 0x1F98 JUMPI PUSH1 0x0 DUP1 REVERT JUMPDEST POP PUSH2 0x1FA5 DUP10 DUP3 DUP11 ADD PUSH2 0x1EF9 JUMP JUMPDEST SWAP8 SWAP11 SWAP7 SWAP10 POP SWAP8 PUSH1 0x40 DUP2 ADD CALLDATALOAD SWAP7 PUSH1 0x60 SWAP1 SWAP2 ADD CALLDATALOAD SWAP6 POP SWAP4 POP POP POP POP JUMP JUMPDEST PUSH1 0x20 DUP1 DUP3 MSTORE PUSH1 0xB SWAP1 DUP3 ADD MSTORE PUSH11 0x16995C9BC8185B5BDD5B9D PUSH1 0xAA SHL PUSH1 0x40 DUP3 ADD MSTORE PUSH1 0x60 ADD SWAP1 JUMP JUMPDEST PUSH4 0x4E487B71 PUSH1 0xE0 SHL PUSH1 0x0 MSTORE PUSH1 0x11 PUSH1 0x4 MSTORE PUSH1 0x24 PUSH1 0x0 REVERT JUMPDEST DUP2 DUP2 SUB DUP2 DUP2 GT ISZERO PUSH2 0x16E1 JUMPI PUSH2 0x16E1 PUSH2 0x1FE5 JUMP JUMPDEST DUP1 DUP3 ADD DUP1 DUP3 GT ISZERO PUSH2 0x16E1 JUMPI PUSH2 0x16E1 PUSH2 0x1FE5 JUMP JUMPDEST DUP1 DUP3 MUL DUP2 ISZERO DUP3 DUP3 DIV DUP5 EQ OR PUSH2 0x16E1 JUMPI PUSH2 0x16E1 PUSH2 0x1FE5 JUMP JUMPDEST PUSH1 0x0 DUP3 PUSH2 0x2055 JUMPI PUSH4 0x4E487B71 PUSH1 0xE0 SHL PUSH1 0x0 MSTORE PUSH1 0x12 PUSH1 0x4 MSTORE PUSH1 0x24 PUSH1 0x0 REVERT JUMPDEST POP DIV SWAP1 JUMP JUMPDEST PUSH4 0x4E487B71 PUSH1 0xE0 SHL PUSH1 0x0 MSTORE PUSH1 0x32 PUSH1 0x4 MSTORE PUSH1 0x24 PUSH1 0x0 REVERT JUMPDEST PUSH1 0x0 PUSH1 0x1 DUP3 ADD PUSH2 0x2082 JUMPI PUSH2 0x2082 PUSH2 0x1FE5 JUMP JUMPDEST POP PUSH1 0x1 ADD SWAP1 JUMP JUMPDEST PUSH1 0x1 DUP2 DUP2 SHR SWAP1 DUP3 AND DUP1 PUSH2 0x209D JUMPI PUSH1 0x7F DUP3 AND SWAP2 POP JUMPDEST PUSH1 0x20 DUP3 LT DUP2 SUB PUSH2 0x20BD JUMPI PUSH4 0x4E487B71 PUSH1 0xE0 SHL PUSH1 0x0 MSTORE PUSH1 0x22 PUSH1 0x4 MSTORE PUSH1 0x24 PUSH1 0x0 REVERT JUMPDEST POP SWAP2 SWAP1 POP JUMP JUMPDEST PUSH4 0x4E487B71 PUSH1 0xE0 SHL PUSH1 0x0 MSTORE PUSH1 0x41 PUSH1 0x4 MSTORE PUSH1 0x24 PUSH1 0x0 REVERT JUMPDEST PUSH1 0x1F DUP3 GT ISZERO PUSH2 0x7C7 JUMPI PUSH1 0x0 DUP2 DUP2 MSTORE PUSH1 0x20 DUP2 KECCAK256 PUSH1 0x1F DUP6 ADD PUSH1 0x5 SHR DUP2 ADD PUSH1 0x20 DUP7 LT ISZERO PUSH2 0x2100 JUMPI POP DUP1 JUMPDEST PUSH1 0x1F DUP6 ADD PUSH1 0x5 SHR DUP3 ADD SWAP2 POP JUMPDEST DUP2 DUP2 LT ISZERO PUSH2 0x211F JUMPI DUP3 DUP2 SSTORE PUSH1 0x1 ADD PUSH2 0x210C JUMP JUMPDEST POP POP POP POP POP POP JUMP JUMPDEST DUP2 MLOAD PUSH8 0xFFFFFFFFFFFFFFFF DUP2 GT ISZERO PUSH2 0x2141 JUMPI PUSH2 0x2141 PUSH2 0x20C3 JUMP JUMPDEST PUSH2 0x2155 DUP2 PUSH2 0x214F DUP5 SLOAD PUSH2 0x2089 JUMP JUMPDEST DUP5 PUSH2 0x20D9 JUMP JUMPDEST PUSH1 0x20 DUP1 PUSH1 0x1F DUP4 GT PUSH1 0x1 DUP2 EQ PUSH2 0x218A JUMPI PUSH1 0x0 DUP5 ISZERO PUSH2 0x2172 JUMPI POP DUP6 DUP4 ADD MLOAD JUMPDEST PUSH1 0x0 NOT PUSH1 0x3 DUP7 SWAP1 SHL SHR NOT AND PUSH1 0x1 DUP6 SWAP1 SHL OR DUP6 SSTORE PUSH2 0x211F JUMP JUMPDEST PUSH1 0x0 DUP6 DUP2 MSTORE PUSH1 0x20 DUP2 KECCAK256 PUSH1 0x1F NOT DUP7 AND SWAP2 JUMPDEST DUP3 DUP2 LT ISZERO PUSH2 0x21B9 JUMPI DUP9 DUP7 ADD MLOAD DUP3 SSTORE SWAP5 DUP5 ADD SWAP5 PUSH1 0x1 SWAP1 SWAP2 ADD SWAP1 DUP5 ADD PUSH2 0x219A JUMP JUMPDEST POP DUP6 DUP3 LT ISZERO PUSH2 0x21D7 JUMPI DUP8 DUP6 ADD MLOAD PUSH1 0x0 NOT PUSH1 0x3 DUP9 SWAP1 SHL PUSH1 0xF8 AND SHR NOT AND DUP2 SSTORE JUMPDEST POP POP POP POP POP PUSH1 0x1 SWAP1 DUP2 SHL ADD SWAP1 SSTORE POP JUMP JUMPDEST DUP2 DUP4 MSTORE DUP2 DUP2 PUSH1 0x20 DUP6 ADD CALLDATACOPY POP PUSH1 0x0 DUP3 DUP3 ADD PUSH1 0x20 SWAP1 DUP2 ADD SWAP2 SWAP1 SWAP2 MSTORE PUSH1 0x1F SWAP1 SWAP2 ADD PUSH1 0x1F NOT AND SWAP1 SWAP2 ADD ADD SWAP1 JUMP JUMPDEST PUSH1 0x60 DUP2 MSTORE PUSH1 0x0 PUSH2 0x2224 PUSH1 0x60 DUP4 ADD DUP8 DUP10 PUSH2 0x21E7 JUMP JUMPDEST DUP3 DUP2 SUB PUSH1 0x20 DUP5 ADD MSTORE PUSH2 0x2237 DUP2 DUP7 DUP9 PUSH2 0x21E7 JUMP JUMPDEST SWAP2 POP POP DUP3 PUSH1 0x40 DUP4 ADD MSTORE SWAP7 SWAP6 POP POP POP POP POP POP JUMP INVALID SWAP12 PUSH24 0x9B17422D0DF92223018B32B4D1FA46E071723D6817E2486D STOP EXTCODESIZE 0xEC 0xC5 PUSH0 STOP LOG2 PUSH5 0x6970667358 0x22 SLT KECCAK256 0xA7 0xE3 PUSH27 0x7F01074F6E8A6D4DFEE50B2BD23B0DB0D797D2C851EB2321534F79 LOG1 0xAB PUSH5 0x736F6C6343 STOP ADDMOD EQ STOP CALLER "},"methodIdentifiers":{"FEE_DENOM()":"4886c675","HOUSE_FEE_BPS()":"1594b256","balances(address)":"27e235e3","bets(uint256,address)":"f644b3bb","claimRefund(uint256)":"5b7baf64","claimWinnings(uint256)":"677bd9ff","collectFees(uint256)":"b17acdcd","createRound(string,string,uint256,uint256)":"e48262f2","deposit(uint256)":"b6b55f25","emergencyWithdrawFor(address[])":"3d918576","getBalance(address)":"f8b2cb4f","getBet(uint256,address)":"e0950ddf","getRound(uint256)":"8f1327c0","nextRoundId()":"4002eda6","oracle()":"7dc0d1d0","owner()":"8da5cb5b","pause()":"8456cb59","paused()":"5c975abb","placeBet(uint256,bool,uint256)":"1a38cac6","previewPayout(uint256,bool,uint256)":"5c6f16e2","renounceOwnership()":"715018a6","rounds(uint256)":"8c65c81f","setOracle(address)":"7adbf973","setWithdrawFee(uint256)":"b6ac642a","settleRound(uint256,uint256)":"3323dc17","transferOwnership(address)":"f2fde38b","unpause()":"3f4ba83a","usdt()":"2f48ab7d","withdraw(uint256)":"2e1a7d4d","withdrawFeeBps()":"7aca2b59"}}}}}